:020000040000FA
:0600000086EF26F012005D
:0A00060002005C4D00003302000010
:10001000040000005A4D00003702000002000000FA
:100020006F6C6D6B3D00076F6F736F773E00A5259A
:10003000131704B0000119003F3C060D313A34009B
:1000400001111B3E3E070300031212131000AB1BED
:100050001410010126073B3B3C3B002800073B3CBA
:100060003C0018120F31002D3C3200300B7B710721
:100070003A1E00121300A622001710003E323F3B2A
:100080003B699B8B2C81747A777777777676777755
:10009000797B73813E2D07737973737572782B7634
:1000A0009A011611669F25012B0707001E013F3399
:1000B0003739010107353D3D2107360E1213121E57
:1000C00087670113101115003C3D3F3D3F32060785
:1000D0003B3B3C3F050F011F002D00260000180090
:1000E00095340023001B1529C12000170F053E265B
:1000F0003C393A6B9D833375777A77777777777763
:1001000078787679652004007374717373757471EF
:10011000047C85111710909512103E3D3E3D0F1343
:10012000002A3C3010136F2D3F062A373E0D111365
:10013000130100980B111010013B3D3D3D3D3C3833
:100140002E003C3B3B3E3C0E1214073200040700DD
:100150003A0A00073E393C041415C223001C0F1B49
:1001600000243F38386C9D7B396A7A7977777777C6
:1001700077777777797923008171717273747373EC
:1001800076000592001315148E891116003B3E2748
:100190000E1C0024002B121D752B003C052E001A8E
:1001A000011012011F91050F12100123003B3B3B70
:1001B0003C0023073C3C3C3C0022110100062D3250
:1001C0003D3B0716018D39000533140AA82A072183
:1001D0000F01002500323A6F9E6A00647E797777BE
:1001E000777777777777797A7A77727375747676A7
:1001F0007676730038A43913141A9F6E111D0039D6
:1002000000170F2F0020000412257205003A320655
:1002100039300F0111120F3BAD101210100D003BC1
:100220003B3B3E0704363D3C3C3C3E070F103F3D08
:10023000203C23073A310800003F043B010B7506C0
:100240003E230E0D0004002C3B6F996400007E7766
:100250007879797A78787B7B7D7E74767676767419
:10026000767777787A063AB204141226B0300129EC
:10027000003C07010F0007030020103569063E0708
:1002800031642D0012121112141978000C10120C86
:10029000333F3B3B3B3C3429003E3D3C3A001C0E87
:1002A000350022383535070016020707273D0E0EA8
:1002B0003C0006220F0D3C0500233A739700000016
:1002C00080777A7A7B7D7F7F7C7C80807574757780
:1002D0007779797779777E3300B615140135BA16B8
:1002E0000F343D00231011000720001D0C00007E7C
:1002F000340030743500290F111111013898101095
:10030000111103003A3B3D3A060003003B3B3F3BE3
:10031000340B210036332D34063F330C22002E38A7
:100320000111186432030F0F363200183D78950022
:100330000000847C7B7E7F7F7E7E808082827677D9
:100340007978787979777977812E00AD0B130F0062
:10035000A0000F3C3D070D12193E3F2300170F6907
:1003600000B52B00050099303F0B100110011775E7
:10037000660E11121000393B073B073F662C073D04
:10038000073A00101300002A2E6D24000010100000
:10039000373013120E69291C0F01053700013D7F0C
:1003A0009400003E867D7D7F818280808180828274
:1003B00076797979797979797976810500A709153E
:1003C0000F007F0012003B340C01203D3D03001163
:1003D000157472DC35000568D52D0011101010124F
:1003E0000F056D1C0E110E373C3A3B3A0739663546
:1003F000063D3C3A00230F07072834000006072A71
:10040000093C3E2E1A100B69241801100406070D32
:10041000398096000007898382828282808083846B
:100420008383777979797979797A7A778030009BC3
:1004300007150170000C19003E21010E2A3A3E03F7
:100440000001227783E400003583E5900024011148
:10045000011101140000131101213E3A3A3907320B
:100460006D692B003A3C3C060B3F3B053000000415
:1004700000070E28002A04010C0003021010033AA2
:10048000320B39888534003E868482828282828261
:1004900083848384797A7A7A7A7C7A7A7A7A7B33DB
:1004A000008F07140F7A320F20000715110D313C11
:1004B0000703000D3B75B6EB00642E242D25073F86
:1004C00001110118020D2A00360E1213073B3B39A9
:1004D000002E73007223003E39000C353F342A0091
:1004E0000000303D1E180004350E0B001E160110D2
:1004F000193D250F3A906B23003E868183838383C9
:100500008585838686867779797C7C7D7C7D7E7FF8
:100510006C330075071511872B012A073B01120D5B
:100520003C39371E000A6D3E00006E6E3169BAB26A
:10053000000016121001710E14003D1B10013E3C0C
:100540003A3907068C33140A303F3900182C3D3BEA
:10055000260066722900330C0020000D0B3A1F1391
:100560001011153C18123F9B0004000087888584F9
:1005700084858686868789897E807F7F7F7F7F7F4F
:100580007F846436000000141086271031072E0186
:100590001001073C312D070D3B00D3E6D964009BC9
:1005A000DDE1BA342701120F05330A2B00000112D6
:1005B00029003D3A0006003464703B3C3C3E302349
:1005C0003C3F2826383E3F36000E002928110C05F6
:1005D0001F1010111538101500963D213D008D8417
:1005E00085868687888886878A8A8082807F8080C1
:1005F000808080850037076A0014117F2012060072
:100600001E011011003F2D2B00017E89DCD2DD6719
:100610000095DBDAEC00000E100B006B210A3A3C6F
:100620002F0C14003A3E0036E1C3667075270706AA
:1006300000033D072C2B7669381A002335053F0D42
:100640000E21030101010237101575873F1A3A0088
:100650008F818888888A8A8A8A8B8A8A8183818026
:1006600081838382818500363C78001412791B13C4
:100670003A071101101700002B283F177A93DCD49A
:10068000DF760098DDDAD9D20002140C006767012A
:100690002100071F0A313B3F0005BFE6B76C6F79A9
:1006A0002C00002B3E002F009167710036070430AC
:1006B000001F0D241C0F0110192B100294000013B1
:1006C00036678B878A8B8A8B8B8B8C8C8C8C848601
:1006D000848281848583838667333D800A1310700A
:1006E00019143E3A0B12111D07073B283A0374A751
:1006F000DDD2DF9E0098DDDCD6D46D26140E0766B1
:100700006500003D3F00111A003E0006B3D8E0B975
:10071000686D672B3E3F3A07062FDF686871320726
:100720002D313F3A0803160101011A2101039B39BB
:10073000000E346E8B878B8B8B8C8B8C9091909072
:10074000878888848483838583886D32077B11132F
:100750001064181307320D1111220038002A3904D1
:100760006AB8D8DAD9D23A97E7DEDFDDCB2A1301AF
:10077000348200713010003E2D0C003F003DA4DC9F
:10078000D4DC9C00003135073F07072DE3976770E5
:100790002D00072F070019181301010102190F0579
:1007A0007E38380F2C7E8C8B8C8D8F919292919409
:1007B00093948A8B8B8A8987878685897D3100749B
:1007C000171301001D14000512011128002F002A23
:1007D00031326BCFD7BFB2B938008D81797C9000B0
:1007E00018132ED2766A72162F00001E0400003DE8
:1007F00094DFD6E18F006A6C373500070023D5E11E
:100800007372393A3F2B200000111101010F1312AE
:100810000C0000002501238F8C8E91939192959569
:10082000989996968D8F8F90908D8C8888858C2E38
:10083000006A1B1201000314002C160101040004BD
:1008400000283000007482C0ECFF863F99A4B4F207
:10085000E0C513182AD4CB6F74700B003D000C0058
:10086000003E7EDEE18F8BD5E18C6A3B003B0026AB
:1008700000A0DA000026002C0D2C00310C10010F16
:100880001112047C3800111121998C90909292944D
:10089000979797989A9A8F918E9292908D8C8B873A
:1008A000952E000004110107251400301801012FB6
:1008B0000025692D062E00E7DE9D0003011B0105C2
:1008C000061698EC64102AD7D99D6E7000020007B6
:1008D0003C2400006DDCDBAADFE07D0D000710008A
:1008E0000727A295796D72240025010E33001B01A4
:1008F0000101100E2D6C3C3D0E01349B9194959599
:10090000999A97999B9D9D9D949594959393929078
:100910008F8E8F35000011120F3B291539361F01BC
:10092000012F07296F0632006B36090A0F011318D1
:10093000011101120600F91B2BDDD9E684717B3A07
:100940003707072C000000DDD7CFEF3E0622100C42
:100950000E1C000705248DC80036000310120F334B
:10096000000E01011201053D3E2D0101009C9598EC
:1009700099989B9D9A9C9D9F9F9F99999A9B9797C9
:100980009695928D9200370021120F382D12373A2A
:100990002F0F012F073000273A200906020D010C06
:1009A000081008080C0B1B04008320DDD8D5C87381
:1009B000737622003B003F0007DFD6EF35053E107F
:1009C0000C0C09000300090B061E706E3C1A101176
:1009D000130135360801012C030000021401919B1C
:1009E0009A9B9E9E9E9FA1A1A3A4A3A59C9A9A9C1C
:1009F0009D98979A989396762E3E31010F31380143
:100A00002E3C06010133382D0000060108000F0CB2
:100A1000000707080907060D013803001ADCD9D7BB
:100A2000E2A8736F6F03003C3F0039DAE42B066CD9
:100A3000210B09040700043D0B120F0C006900157F
:100A4000131010110A3804011111373E001015253A
:100A5000AC99A09DA2A29FA0A3A3A6A6A4A69E9C7B
:100A60009C9B9B9A9A9A9A999890043C3A0F012DD4
:100A7000070D2F3D070101343639743437008803E0
:100A80000D0007070007070707000830000025D7FB
:100A9000D7D8D5DF966F6D6A2A003D0006F065074E
:100AA000007A070E0700070000080B070C140C0063
:100AB00017850E101110010B0312010F3B3F2B0184
:100AC0001200AA9FA8A2A4A4A4A4A4A4A4A4A5A418
:100AD0009F9D9D9D9D9C9C9C9C9D9AA038003F1134
:100AE0000126000D263B3F110136050000063000AF
:100AF00000020C0000000007000000000C0F9B72B9
:100B000038CFD9D9D6D4DD797671000500003BAB5A
:100B10000100A91A010A00000007000000000D07EB
:100B2000000904CC680E1311011001101112003FCE
:100B300002141284A0A2A6A1A5A4A4A4A5A5A5A45C
:100B4000A5A9A09F9F9F9F9E9E9E9E9C9D9F6E007D
:100B5000001E0F2430012C32001410382E7128078B
:100B6000067E180D0A0000080403030000090C09A2
:100B70007AD3CFC4D6D8D8D6D3DB777C7585056E2B
:100B80003CC6CED291011209090D0803030A0008E0
:100B9000000E2F8508699A05110101101411111A10
:100BA0003E3D0116139BA5A6A5A5A7A7A7A7A4A48C
:100BB000A4A5A6A6A1A0A0A0A0A0A09F9F9FA09B27
:100BC000913200380C1F000D262D0019013A0574D2
:100BD0000219367B1307051B0D100304030B0C08C9
:100BE0000C0A9BCDDAD7D5D8D8D9D5D5CE757B957B
:100BF000C50000D5E1C2CA06120B11120405030F8D
:100C00000F090010018E280AE700011111130F08C7
:100C100009040029101206AEA6A5A6A6A8A7A9A990
:100C2000A7A7A7A8A6A6A4A3A3A3A3A1A1A09F9F8B
:100C3000A19AA80500001216000B6405001C1039CB
:100C4000381B00862B9919C17200100E0404040091
:100C50001120121075F7DCD6D5D8D8D8D7D6D9D16F
:100C6000777DE8A43BCFE4E5C3ABFF7A260E03050E
:100C7000040A14351001047B000D7C9E1C12130124
:100C800000A974040001140188ADA6A6A6A6A8A612
:100C9000A6A7ABABABABAAAAA2A3A3A4A3A3A3A3EF
:100CA000A3A2A49EA26A31000400001539390024D1
:100CB00001392900289305D5EFF2FF9A100F040699
:100CC000050002001D0A65FADAD7D6D8D8D8D5D7DC
:100CD000D8DDC26DC6E6B4D4E3EBFDFEF1F6061333
:100CE0000506040D1300331207657F351CBE041082
:100CF000140BB98696C526121723BEA3A8A8A9A9C6
:100D0000A8ADABABADADADADADADABA6A6A4A6A346
:100D1000A3A3A3A3A3A4A39B240035BA002A052D53
:100D2000062F0B390300658000CCD9FFF89303012F
:100D3000060605012587CCC87AFADCD8D7D8D8D8DA
:100D4000D8D8D9D9DCC49FDEDCDDDEE9C8E9FFE212
:100D5000001612070A141974051302C3858007B719
:100D600020111313006800A32C171300B2A9AAAB1B
:100D7000ABABAFADADADADADADADAFAFAAA8A8A6B5
:100D8000A8A9A9A9AAA6A3A1A88B2E0000E43A00AD
:100D9000000023000C381F018381BFD11D3C3C7F24
:100DA0000012010F0C1900F3F6F9F8E4DCD6D7D8DD
:100DB000D8D8D8D8DAD9D6DFDCD8DADCDCEEC21362
:100DC0000000813E131111013989C7C111DCBBA399
:100DD0000BB41E130100746B6A00001411A6AAA8BC
:100DE000ADACB0AFAEAEAEAEAEAEB0B0B1B1AAAA21
:100DF000AAABAAABABAAA9AAAAA8AD74060570D3E0
:100E00003600007103001406042396B6FDFF0002AD
:100E10002676770004222D667EBADFCDEBE8DCD99A
:100E2000D7D8D8D8D8D8D8D8D7D9D9DAD8DADCE62C
:100E3000DE191B357F78002D29007DD2FAFAB6EB3A
:100E4000F6C32DA10215127064676D00710F00BD0D
:100E5000ACAEAFB1B1B1B1B1B1B1B1B1B1B1B1B18C
:100E6000AAADADADADADADACABABABA7AD003A3D52
:100E70007AC405000077310029042F3BA6EFF3F672
:100E8000A90D1F3A817A7375787B88382127FAE398
:100E9000E0DDD9D8D8D8D8D8D8D8D9DADADADADAB9
:100EA000DAE5FD2B0222747D7A767C7B81E4FFFFFC
:100EB000FDF3F1EFBEAF17142A6D696B6F00861159
:100EC000ABB2ADB3B1B1B1B1B1B1B1B1B1B1B1B119
:100ED000B3B3ACADABACACACACABABAAABAAAF07ED
:100EE000069A74C23C009190003F38293A7C99ECF4
:100EF000F0EEFF061B1A007B7A7A7B7D0003197CDB
:100F0000F7E3DDD9D8D8D8D8D8D8D8D8D8D9D9D92E
:100F1000D9D8DCE6FBA0011D067D7A76778080318A
:100F20007700E3EDEFE8E5A91510006F6A6C760035
:100F30008804BCB2B1AFB1B1B3B3B3B3B3B3B2B35E
:100F4000B6B6B5B5AEAFADACACACACACACACACA9B8
:100F5000B43A00BE66D46F00ABE8993800263A7AFE
:100F600096EAE9F1F1DF17191B340065002B1B1914
:100F700024F2F1E3DCDAD9D8D8D8D8D8D8D8D8D860
:100F8000D8D8D8D9DBE3E4FC2D131C2E6C78776B12
:100F90000526026FFDF3EAE4E18919227E729DB60F
:100FA0009C7C7590BCB3B1B2B2B3B6B6B5B5B5B5AD
:100FB000B3B3B3B3B6B6B2B1B1B0B0B0B0AFAFAF18
:100FC000AFAFB13600CC00E1AF3AA3DAE5006B2455
:100FD0003A7B95E4E9FFFEF0EC050D161B1C1B02A5
:100FE0000116D6F7EAE2DCDBD8D6D8D8D8D8D8D8DC
:100FF000D8D8D8D8D8D8D9DCE1EFEF370C161B24D5
:101000002503030C74FDF5A6E0E1E3661A00A4DCF9
:10101000DCDABFBA00BAB8B4B2B3B3B4B5B5B6B6D9
:10102000B8B8B8B8B6B6B6B6B3B1B1B2B2B2B2B07B
:10103000B0AFAFACB22396BC00D6ED009DD9D8942A
:10104000002E397E95E5B73493F9F0FD8535200201
:101050001B2974EEFFEEE8DFDCDBD8D5D8D8DADA6E
:10106000D8D8D8D8D8D8D8D8D9DBDBE5C6FE802BDD
:10107000170111162793FFF98306B1E7EA351F8997
:10108000EAD2D7DDD0E500CCB7B4B3B3B4B6B8B9C3
:10109000B8B8B8B8B9B9BAB9B8B8B3B3B3B1B1B1EF
:1010A000B1B3B3B3B1B49D23BEB17DA9FB8088E1D8
:1010B000DFA82700338192E4DBB8133DFEFFF2F98D
:1010C000F1E3E9FAFFFF95E4DBDBDAD8D9DEDDD422
:1010D000D1D0DBD5D6D8D8D8D8D8D8D8D6DD6E33AD
:1010E000BFFFE5D3D3DAF3F9FF680982E6E2CA1756
:1010F00025BED6D5CEE5E0D077C8B6B7B7B7B7B876
:10110000B8B9BABABABABABABCBCBCBCB5B6B6B44D
:10111000B4B4B5B3B3B2B1BF658EB7AC9A6B9FBF71
:101120006FDFDD830000347E8DE3D4E8CB221780AF
:10113000C3DBDECDB084002884E3DEDADAD9DADD81
:10114000D8DC939BE0D7D6D8D8D8D8D8D8D8D8D39D
:10115000E98622277AC9EDF4E5BF3E1086FAD8E089
:101160007A0400C6DAD8E291B3C39FBCB8B8B8B766
:10117000B7B8B9B9BCBCBCBCBCBCBDBDBCBCB8B8C4
:10118000B8B7B7B6B6B5B5B5B5BB69BEB1B1BF00F6
:10119000AA003FDDDF767D00388087E4D7D6DCE526
:1011A00066170D0E12162971BDF2E4D5D9DDD9D717
:1011B000D7DBD8E271A0DED7D7D8D8D8D8D8D8D83E
:1011C000DCD7CFE0F2C371311E0210013EC2E3D47E
:1011D000D4E01F8B00C1E3CB8600EDA2B4B8BABA4D
:1011E000BBBABABBBCBDBEBEBEBEBEBEBEBEBEBE30
:1011F000BBB9B9B9BAB7B7B7B7B7B7B6B8B8B6B277
:10120000BB92CA9E2DC5DED87431007484EBD8D64B
:10121000D6D5E8D8CCCED5DAE0E8D7E0D5D7E4C942
:10122000D8D6D6D9DABF6C96DCD5D8D8D8D8D8D805
:10123000D7DCC3DBD9DACFDEE6DFDDD6CFD7DDDC26
:10124000CED3DDBC20E80079808C00DCE600C0B99C
:10125000BDBCBCBDBFC0C1C1BEBEBEBEBEBEBFBFA9
:10126000BEBEBCBABABABABABABABAB8B7B8B7B7E1
:10127000B7B6B8C000F90000AFCFEC3100937BE403
:10128000D8DADEBFCBDBD5D4D5D0DADBBFE2D9DA12
:10129000D9C9D6D6D7D4DDB0728EDADDD9D8D8D8B0
:1012A000D8D8D7D9C3D7D7DFB6D1D7DBD6D5D5CC09
:1012B000DAD4CEBBEF65B08B00767A3FB0E08B8E90
:1012C000C1BDBEBEBEC0C0C1C2C1BEBEBEBFC0C029
:1012D000BFBFC0C0BCBCBCBCBCBCBDBBBBB9B9B94A
:1012E000B9BBBCBBBBBCB800EF890780926C26B30E
:1012F00077D0DBDDC5D2BADBD8DAD0D7D8D7C1DA20
:10130000D9DBBAD2DAD8D9D6D8D37480DDA0DCD86C
:10131000D8DADAD8D8D6D1C2DCD3CBDAB2E0D7DC8F
:10132000D3D1DCB4D5B3D700B900876600C5E96A6C
:10133000A1C8BDBDBFBFC0C1C2C1C0C0C0C0C1C1C6
:10134000C3C3C3C3C3C3BFBEBEBEBEBEBEBEBEBD9F
:10135000BDBDBDBBBABCBCBFC3A38EF0BE6A647AC0
:101360000092A6AAE1DBB7E3BCDED7E2C2DAD8DAA4
:10137000C4C6DBDBB2DFD7D8DAD9D6DDD467DECBA3
:10138000DBD8D9D9D9D8D8D9D9AFE4BADFDBBCD624
:10139000DAE7AFE1DAC9CFBB7EC88A733B77F3E601
:1013A00071AEC8BFBDC0C2C3C2C1C0C1C3C3C6C67F
:1013B000C3C3C3C3C3C3C5C5C0C0C0C0C0C0C0C011
:1013C000C0C0C1C1C1BFBFBEBEBEBBC1A900DFEEB0
:1013D000D6773A00E07DE2CED1DCBADFD8E0BEDDE0
:1013E000D9D9D7B9E0DBD3D8DAD9D9D8D8D9D6E288
:1013F000D6D6D8D8D8D8D8D8D9DAE1B4D8B1DCD8AC
:10140000DDBEE1BBC8DAD3DFB6E8E0D1000081E49D
:10141000D03FBEC3BFBEC1C1C2C4C4C5C5C4C4C41D
:10142000C5C5C4C4C5C5C5C5C8C8C1C4C3C3C4BF78
:10143000BFC1C0C2C3C3C3C2C2C1C1C0C2C4C4B69B
:1014400072ACEFEF8939C3A5D2C0D9DEB6DDDAC4FC
:10145000C8DAD7D8DFB9DCD9D8D7D8D8D8D7D8D830
:10146000D6D7D7D6D8D8D8D8D7D8D8D9DCCDD2D017
:10147000D9D9E2B3DEB0E5D9D4DBC0CDEC006D78CC
:10148000D5BE6DC5C5C4C0C2C2C2C5C5C4C6C5C46B
:10149000C4C4C5C5C7C6C9C9C9C9CBCBC4C6C6C6DD
:1014A000C6C4C3C2C2C0C0C0C0BEBEC1C2C2C2C226
:1014B000C1BCD46586CA8A8873EAB5DBD9DABCDEDA
:1014C000DBB4DCD9D7D8D6DDD8D8D8D8D8D8D8D8B6
:1014D000D8D8D8D8D8D8D8D8D7D8D6D8D8D8D5DD8D
:1014E000D8D8D8D8D6CFCDD5D9D7D8D7D6BCB400B0
:1014F000788ED26CDDC3C3C2C2C4C6C6C6C5C4C65C
:10150000C6C6C6C6CACACACACACACACBCECEC6C64A
:10151000C6C6C6C5C5C3C2C4C5C6C6C3C3C1C1C18C
:10152000C2C2C0C0C0C9AF3A6F7E00B6DFD5D5D841
:10153000D7D9D9D7DCD9D9D8D9D6D8D8D8D8D8D826
:10154000D8D8D8D8D8D8D8D8D8D8D8D8D7D8D8D81C
:10155000D8D8D9DAD9D8D9D9DAD8D7D9D7D9D3E2FE
:1015600068847F0086CFC6C3C3C5C6C7C7C7C9C9FD
:10157000CACAC9C9C9C9CDCDCCCCCECECECECFCFAB
:10158000C7C8C8C8C8C6C4C6C2C3C7C8C7C5C5C5FA
:10159000C4C5C5C4C2C3C4C2C4C62E00773FDAD016
:1015A000D5D8D8DAD8D8D8D8D8D8D8D8D8D8D8D8BC
:1015B000D8D8D8D8D8D8D8D8D8D8D8D8D8D8D8D8AB
:1015C000D8D8D8D8D8D8D8D7D8D8D8D8D8D8D9D99A
:1015D000E2BF3B0038A8D0C2C4C4C6C9CCCCCCCC76
:1015E000CCCCCCCBCACACACACECDCECED0D0D2D229
:1015F000D2D2CACCCCCCCCCACBC7C5C6C7C8C9C549
:10160000C5C5C5C6C8C8C6C4C3C3C2C2C3190219AA
:1016100095E1D9DCD8DAD8D8D8D8D8D8D8D8D8D87D
:10162000D8D8D8D8D8D8D9D8D8D8D9DAD9D8D8D835
:10163000D8D8D8D8D8D8D8D8D8D6D8D8D8D8D8D92B
:10164000D7DAD61A1D19C8CCC4C9C8C7C9CACBCCE9
:10165000CCCCCCCCCCCCCDCDCDCDCECED0D0D1D0B1
:10166000D2D2D6D6CCCCCCCCCCCCCCCACAC6C4C4B4
:10167000C6C2C2C2C2C3C6C6C6C5C5C4C4C4C8B237
:10168000021E03CEDCD8DAD9D7D6D8D8D8D8D8D845
:10169000D8D8D8D8D8D8D9DADAD6D9DCDBD9D9DABB
:1016A000DAD8D8DAD9D8D8D8D8D8D8D8D8D8D8D9B4
:1016B000DADAD2EA001E1995CFCAD0CECECECECE7F
:1016C000CECECECECDCDCDCED0D0D0D0D0D2D3D127
:1016D000D4D4D3D3D6D6CCCCCCCCCCCCCCCCCCC61E
:1016E000C4C6C8C4C4C4C4C4C4C4C4C3C4C6C6C7AE
:1016F000C2CC661C1A00E7D4DAD9D7D6D8D8D8D845
:10170000D8D8D8D8D8D8D8D8DBD8DDECD6CDCAD759
:10171000E3DDDAD6D8DAD9D8D8D8D8D8D8D8D8D836
:10172000D8DAD9D4E3901B1C75DAC9CDD2CFCED08C
:10173000D0D0D0D0D0D1D2D2D2D1D0D0D0D0D4D598
:10174000D6D5D4D4D6D6D8D8CFCDCDCCCCCCCCCC85
:10175000CCC9C9C8C6C6C6C5C5C6C7C7C7C7C6C51A
:10176000C5C3C4C4B4161D177FEAD9D7D7D6D8D8F5
:10177000D8D8D8D8D8D8D8D8D8DACFDF8964737079
:101780006F6668A4E4DAD7D8D8D8D8D8D8D8D8D84B
:10179000D8D8D8D8D5DEA51D2325D4CFD0D1D2D244
:1017A000D2D2D2D3D3D3D3D3D5D5D5D5D6D6D6D6F8
:1017B000D6D6D8DAD7D7D7D7D9D9CFCFCFCCCCCCEC
:1017C000CCCCCCCCCBCBC9CACAC8C7C9CBCACACA75
:1017D000CAC8C7C5C4C7D9001B050F92E0D9D7D660
:1017E000D8D8D8D8D8D8D8D8D8D8D8D7DE698CB156
:1017F000ADADADACA20091E3DCD8D8D8D8D8D8D85C
:10180000D8D8D8D8D8D8DBC3038E109BD8D5D5D399
:10181000D2D5D5D5D5D5D5D5D5D5D6D6D6D7D7D772
:10182000D7D7D7D8DAD9D8D8D8D8DADACCCECED05C
:10183000D0CACCCBCCCCCCCCCACCCCCCCCCCCCCCE9
:10184000CCCCCCCCCCCBCACCCACC149E1F1B97EF33
:10185000D5D8D8D8D8D8D8D8D8D8D8D8D4D8C900F6
:10186000736A79A18D7B71763EB3D6D8D8D8D8D893
:10187000D8D8D8D6D8D8D9D8D602A30000E9D2D69D
:10188000D6D6D6D6D6D6D6D6D6D6D6D6D6D6D6D7F7
:10189000D8D8D8D8DADADADAD9D9D9D9DADACBCECF
:1018A000CEC9CACCCECCCCCCCCCBCACBCCCCCCCC7D
:1018B000CCCCCCCCCCCCCCCCCCCCC8D73A8CB51AFC
:1018C0001183E4D8D8D9D8D8D8D8D8D8D8D8D9D7A7
:1018D000D8E4DACECFDED8D1CDC9D8DBD8D8D8D8A5
:1018E000D8D8D8D8D8D9D8D5D8D50300EC1DB9D1F7
:1018F000D4D6D6D6D6DADADADBD7D7D7D7D8DADA6B
:10190000DADADBDADADADADADADADCDEDEDEDCDC24
:10191000C2C2C3C1BFC6CECDCECECFCBC8CACBCC40
:10192000CCCCCCCCCCCCCCCBCCCBCCCCCCCC946A93
:10193000D7921A1C3DE7D4D7D9D8D8D8D8D8D8D878
:10194000D8D8D8D9D9D6D7D8DBD3D8D8D6D8D7D81D
:10195000D8D8D8D8D8D8D8DAD3D4E5292CD8AF005D
:10196000DDD9DBD8D8D7D8D9DADADADAD9D9D9D9E2
:10197000DADADADBD3D8D9D9DCDBDADADDD9DBDDC8
:10198000D9D9B7B7BCB2B0BEC9CBCDCBC8C7C6CA10
:10199000CCCDCDCCCCCCCCCCCCCBCCCBCCCCCCCE85
:1019A000C590CAD9001B1D00C8E1D7D6D9D8D8D850
:1019B000D8D8D8D8DADAD9D7D0D4D7D7BED2D8D8D1
:1019C000D8D8D8D8D8D8D8D8D8DCD6D92C109AD44A
:1019D000B7C7D6DCDDD9D8D5D5D2D2D2D1D9DBDBC9
:1019E000DBD9D4D3D2CEC5CFD1CDCECBCDD2CEC400
:1019F000C4CAC9CA98969D9599B3BEB8ACABAEABF4
:101A0000ADB6C0BEC2C3C3BFBEBDC1C3C7CACCC9C9
:101A1000CACCD1D7D2D3E2051C9871B6E5DADCDAAC
:101A2000D9D9D8D8D8D8DAD9DFA4006B716600A983
:101A3000DED9DAD8D8D8D8D9D8D8DBE3DC2D1C0049
:101A4000EACCD1D2D5D7CECDC7BEB5B5B2B7C1C11C
:101A5000C4C2C3C1BBBDC0BDB7CCC3BCB2BBBBC29B
:101A6000BCAAAFB1B2BE8481888A8E98A49F928EA0
:101A70008E90969BA6ACB2BCBEB2AAACB4B9BBBEAB
:101A8000BEBBBFC7CBC9CBCECEBB1100ED9F78EE9E
:101A9000DAD9DADDD8D8D8D8DBDAD7DBC28D7989C4
:101AA000B6DCD6D8DAD8D8D8D8DAD9D1ECB08E37D7
:101AB00021B9B1B0AFBECBC1BAB6ACA499959497D9
:101AC000A2ADACA7A6A5A3A1ACB2B8C4B5A39BA573
:101AD0009F9D958C9592848C828183838A949C9A15
:101AE000878381879496A3A8B1B8BDB1A8A8B2BADC
:101AF000BBBBBEBDC0C8CBCCCACED2DA8E25D4E922
:101B00008900C4D7D1D6D6D8D8D8DADAD8D6DAE58B
:101B1000E2E6DED8D6D8D8D8D8D8D9D8D6E09A72C6
:101B2000E21688C3B7B2AEC0C8C3B9B2AA9E979036
:101B30008C8D95A2A99DA49E939DA9B0BDC9AE9A76
:101B40009C9A998C887F808368788582888D96ACF2
:101B5000ABA8A09C9CA3A9ABB3B3B8BFBFB8B3B3A9
:101B6000BBC2C4C6C8C9CCD1D2D2D3D2CFD3DB0674
:101B7000C0D1BC006E7BE7E0D6D7D9D8D7D8D8D6AD
:101B8000D7D9DBD9D8D8D8D8D8D8D8D9D7D5DE00A6
:101B900022CE8D05E2C2BDBDBCC9CECBBFC0BBB598
:101BA000B9ACA4A6ACB1B5B2B5B4AFB6B9B9C3D5EA
:101BB000BFAAB0B6AFB1B0A7ACA98CA59A9BA4A799
:101BC000B7C0C2C2BDBDBDC5CAC6CCCBCECCCCCDC4
:101BD000CDCFD1D1D1D2D5D5D5D5D8D8D8D8DADBBB
:101BE000DBB0A7D7E2007C7800B3E4DAD6D9D9D944
:101BF000D8D8D9DAD9D8D7D7D8D9DADCD6D4E8AD7D
:101C0000323923DD06BADBD8D5D7D7D9D9D7D7D73C
:101C1000D7D3D2CCCBC9CED2D3D3D3D2CECECBC7CF
:101C2000CED6D1C8CED2C2CACAC7D2CBBDC2B3BA31
:101C3000BABECBCED1CFCFCFD1D3D3D1D3D2D2D2C4
:101C4000D3D3D3D3D3D4D6D6D6D6D6D6D8D8D8D83D
:101C5000DBDBDBE4D7DFC0356D70800064DADFD614
:101C6000D8D8D8D8D9DAD8D8D8D8D8D9D7D4DADFEC
:101C7000682C373126652FDFE2E1DFDEDEDBDBDCDF
:101C8000DCDDDDE0E1DFDFDFDFE1E1E1E1E1DFE05D
:101C9000DEDCDDE1E2E0DFDDDDDBDCDDDDDBD3D47E
:101CA000C3C8C8CFD5D5D6D6D6D5D6D6D7D6D6D60C
:101CB000D6D6D6D6D6D6D6D6D6D6D8D8D6D6DADAB8
:101CC000DADADCDCD9D88CA7927A00666B7370669E
:101CD0008EE6DBD5D9DAD9D9D8D8D8D8D7D2E6DCB0
:101CE0007F3732302C2D00AFE0968EEDDFE2E5E05D
:101CF000E0DFDFE0E0E0E0E1E2E2E2E2E2E2E2E3D4
:101D0000E4E5E6E4E2E2E2E2E5E2E1E0E2E2E2E2A8
:101D1000E7E3CED4D4D8D6D6D6D6D6D4D4D7D8D650
:101D2000D6D6D6D6D6D6D6D6D6D6D6D7D8D8D8D84A
:101D3000DADAD8D9DCDDE197DEC4979A0067686605
:101D40006E7A6700C7DDD9D8D5D7D7D7D7D6DBE726
:101D5000B02C32312F363B237FA0AFFFCE9FF2E471
:101D6000E5E0E0E0E0E0E0E0E0E1E2E2E2E2E2E261
:101D7000E2E2E4E4E4E3E2E2E2E2E4E2E1E0E2E23D
:101D8000E2E2DFE0D6D6D6D6D6D6D6D6D6D6D6D6C8
:101D9000D6D6D6D6D6D6D6D6D6D6D6D6D6D9DADAD8
:101DA000DADADADADADADDDCD4AFF9A49A92006DA5
:101DB0006464676970790069B8E2DFD8DAD3E5E274
:101DC0009A3829323D006B67002200A7A4EAF67416
:101DD000E4EAE0E2E2E2E2E2E2E2E2E1E1E1E1E1E0
:101DE000E1E1E1E1E1E1E1E1E1E1E1E1E1E2E1E1E2
:101DF000E2E2E2E2E2E2D6D6D6D6D6D6D6D6D6D63B
:101E0000D6D6D6D6D6D6D6D6D6D6D6D6D6D6D6D870
:101E1000D9D8DADAD8D9DBDBDEE2BBD7E9A3887A16
:101E200000726465006466697278006EB1DBD8D2B6
:101E30009137050000686D650000682F009BAAE2DD
:101E4000F8ABA7EDE2E2E2E2E2E2E2E2E2E3E3E3C0
:101E5000E3E3E3E3E3E3E3E3E3E3E3E3E3E3E3E352
:101E6000E3E3E2E2E2E2E2E2D6D6D6D6D6D6D6D6B0
:101E7000D6D6D6D6D6D6D6D6D6D6D6D6D6D6D7D700
:101E8000D6D7DADADADADCDCDCD9DDEC95ECEEA8F0
:101E90009F77006764640000656400676C7E65007E
:101EA000003C0072746D00650000000066393FA6BA
:101EB000AFF0F8F57CF5E2E2E2E2E2E4E5E5E5E543
:101EC000E5E5E5E5E5E5E5E5E5E5E5E5E5E5E5E5C2
:101ED000E5E5E5E5E2E2E2E2E2E2D6D6D6D6D6D61E
:101EE000D6D6D6D6D6D6D6D8D8D8D8D7D6D6D6D689
:101EF000D6D7D6D7DADAD8D8DCDCDCD9D9E787F977
:101F0000F4C4AF776B00646600006464656667665E
:101F100071726C76746865640000000000006737B9
:101F200000B4C0FFF1FF89ECE9E2E2E2E2E7E7E7B3
:101F3000E7E6E5E5E5E5E5E5E5E5E5E5E5E5E5E54E
:101F4000E5E5E5E5E5E5E2E2E2E2E2E2D6D6D6D68F
:101F5000D6D6D6D6D6D6D6D6D6D6D6D6D6D7D8D81C
:101F6000D9D9DADAD9DADADADCDBDCDCDCDCDBCCD6
:101F70009BF8F6EFB3A800006600000000000064C4
:101F800000006500650064646400000000000064F7
:101F90007122AEADECF6F5FFBACEE8E2E4E0E0E2A5
:101FA000E5E5E5E5E5E5E5E5E5E5E5E5E5E5E5E5E1
:101FB000E5E5E5E5E5E5E4E2E2E2E2E2E2E0D6D607
:101FC000D6D6D6D6D6D6D6D6D6D6D6D6D6D6D6D7B0
:101FD000D8D8D9DADADAD8D9DCDBDCDCDADBDCDC5D
:101FE000DEACBDF9F4FCD9B09D0471000000000026
:101FF00000000000000000000000000000000000E1
:1020000000683D81B2CAFBF5F6F6DAB2EEE3E4E22F
:10201000E0E1E5E5E5E5E5E5E5E5E5E5E5E5E5E579
:10202000E5E5E5E5E5E5E5E5E4E2E2E2E2E2E2E078
:10203000D6D5D6D6D6D6D6D6D6D6D6D6D6D6D6D641
:10204000D6D7D7D7DADBDCDCDBDCDCDCDCDCDBDCEA
:10205000DBDCE69DE6F7F4F2FAC1B29C006D6400A9
:102060000000000000000000000000000000000070
:1020700000006B006FB1B7F3F4F9F6F4E991F2E404
:10208000E6E4E4E2E5E5E5E5E5E5E5E5E5E5E5E504
:10209000E5E5E5E5E5E5E5E5E5E5E4E2E2E2E2E200
:1020A000E2E0D6D4D6D6D6D6D6D6D6D6D6D6D6D6BC
:1020B000D6D6D6D8D8D8DADBDCDCDCDCDCDCDCDC81
:1020C000DCDCDADCF98CFFF9F6F5F0F2B6AE9C3523
:1020D0006C00640000000000000000000000000030
:1020E0000000006C3976ADB3EFFBF6F8F8F9F47F39
:1020F000F0E9E7E7E5E2E5E5E5E5E5E5E5E5E5E580
:10210000E5E5E5E5E5E5E5E5E5E5E5E5E4E2E2E289
:10211000E2E2E2E0D4D5D5D6D6D6D6D6D6D6D6D635
:10212000D6D6D6D7D7D9DAD9DADADCDCDCDCDCDC17
:10213000DCDCDCDEDDE5B8DBF5F5F6F5F4F7E2AE88
:10214000AA9307686400000000000000000000007F
:102150000000000067006DAEAED5F7F4F5F9F7F7B3
:10216000FA87D7E4E7E7E7E2E4E5E5E6E6E6E6E670
:10217000E6E6E6E6E6E6E6E6E6E6E6E6E3E4E3E20B
:10218000E2E2E1E4E1E0D4D4D4D6D6D6D6D6D6D6AF
:10219000D6D6D6D6D6D7DAD9D8D9D9DADCDCDCDCB3
:1021A000DCDCDCDCDCDEE1DC98F9F9FAF6F6F6F6EC
:1021B000FCD4ACA49C076C65640000000000000027
:1021C00000000000006E3486A9ABCAFEF8F6F6F9EE
:1021D000F7FAFBD296EFE7E7E7E2E2E4E5E6E7E7C6
:1021E000E7E7E7E7E7E7E7E7E7E7E7E7E7E7E2E289
:1021F000E2E2E2E2E2E3E0E0D4D4D4D6D6D6D6D628
:10220000D6D6D6D6D6D6D6D6D9D8D9DAD9D9DBDC51
:10221000DCDCDCDCDCDCDEDAEAB4F5F5F5F7F6F67E
:10222000F6F6F6F8D1A9A19E39006800000000007A
:1022300000000000006567368CA2A6BAF8F5F5F636
:10224000F6F6F8F9F5FF8CF0E5E7E6E2E2E3E3E322
:10225000E3E3E3E3E3E3E3E3E3E3E3E3E3E3E3E34E
:10226000E2E2E2E2E2E4E3E2E0E0D4D4D4D6D6D69D
:10227000D6D6D6D6D6D6D6D6D6D6D8D8DADAD9D9EC
:10228000DADBDCDCDCDCDBDBE1DEDB9EFBF6F6F65E
:10229000F6F6F6F6F6F6FEC7AB98AF0000666400F9
:1022A000000000000064660038A1A1A8BFFDF7F798
:1022B000F6F6F6F6F6F6F6EFE17FEEE5E5E3E2E2B6
:1022C000E2E2E2E2E2E2E2E2E2E2E2E2E2E2E2E2EE
:1022D000E2E2E2E2E2E2E2E5E2E2E0E0D4D2D2D51A
:1022E000D4D6D6D5D4D4D6D6D6D6D6D6D8D7DADA8A
:1022F000DAD9D9DADBDDDBDCDBDBE1E283E7F4F53D
:10230000F4F6F6F6F6F6F6F6F7FABEA79F9B7A39DC
:1023100071000000000000712F75A09DA8B5F3FAB0
:10232000F5F8F6F6F6F6F6F6F5F5FEA5C9E2E2E4FE
:10233000E4E0E0E1E2E2E2E1E0E1E1E1E2E2E2E286
:10234000E0E0E0E0E0E0E0E0E0E3E0E0E2E0D4D2A2
:10235000D2D2D2D4D4D2D2D3D6D6D6D6D6D6D8D735
:10236000DADADAD9DADADBDEDCDCDCDBE0D4B3FFC4
:10237000F6F6F6F6F6F6F6F6F6F6F6F7F8C0AB9CD5
:102380009A853D00686500670034879D9DA4B6F47A
:10239000F7F6F7F8F9F6F6F6F6F6F6F6F5FA82E05D
:1023A000E4E6E6E3E0E2E2E2E2E0E0E1E1E1E2E20B
:1023B000E2E1E0E0E0E0E0E0E0E0E0E0E0E0E1E019
:1023C000D4D2D2D2D2D2D2D0D0D2D6D6D6D6D6D6D7
:1023D000D8D8DADADADADADBDCDDDEDEDCE4F7A460
:1023E000F0F8F6F6F6F6F6F6F6F6F6F6F6F6F4F594
:1023F000B1AA9B909B00006A6B386798949AA6B428
:10240000F2F3F8F9F8F6F6F6F6F6F6F6F6F6F5F96A
:102410008CAA96E0EEDFE1E1E2E2E2E0E0E0E0E17A
:10242000E3E3E3E2E0E0E0E0E0E0E0E0E0E0E0E0A1
:10243000E0DFD4D2D2D2D2D2D2D2D2D3D6D6D6D64E
:10244000D6D6D8D9DADADADADBDCDCDDE2F0DCA108
:102450008F84F4F5F6F6F6F6F7F7F7F7F6F6F9F9EE
:10246000F4F6F5B8AD9D929E7F3A3E7C9A9697A77A
:10247000AFEEF7F7F7F8F8F7F7F6F6F6F6F6F6F642
:10248000F9ECBAFFE2A09ADCF0E3E5E2E2E0E0E09A
:10249000E0E0E0E0E0E0E0E0E0E0E0E0E0E0E0E03C
:1024A000E0E0DFDED4D2D2D2D2D2D2D2D2D4D6D6CB
:1024B000D6D6D6D6D8D9DADADADCDCDDE1E4CE93CA
:1024C00086C0F481E1FAF5F6F6F6F8F8F8F8F6F6D3
:1024D000F6F6F4F4F7F0B4A59B6D853400A1008105
:1024E0009DABE9F9F5F6F6F6F6F8F8F6F6F6F6F637
:1024F000F6F7FFA2A1ECF4FFEC9195DCE5E4E2E154
:10250000E0E0E0E0E0E0E0E0E0E0E0E0E0E0E0E0CB
:10251000E0E0E0E0DEDCD3D0D2D2D4D0D2D4D4D448
:10252000D6D7D8D5D6D6D9D9DAD9D9E2F0BF8A9EAE
:10253000C9E4FAFFBB7192FFF6F5F7F8F8F8F8F87E
:10254000F6F6F6F6F8F7F6F8F4AF8A90007C960007
:10255000AA00A6E1FAF6F6F7F7F6F6F6F6F8F8F6B8
:10256000F6F8F6F1EE89A3D4FCF1F4FBE8B79AC9CA
:10257000F6E1DCDFE0DEE0E0E0E0E0E0E0E0E0E04B
:10258000E0E0DFDFDFDFDCDDD2D0D2D2D4D0D2D3C7
:10259000D4D4D5D6D8D6D6D9DADADEE0DDB785A55B
:1025A000F5FFFBF6F9E48AB792EAF6F4F7F8F7F8E4
:1025B000F6F6F6F6F6F6F7F7F6F6F9FF07A36892E1
:1025C000A4078F276FFDF7F6F7F8F8F6F6F6F6F89A
:1025D000F8F6F6F6F6FABAD5A3C3F5F6F7F4F3FE75
:1025E000F79C8ED1E8E4E2DFDFE0E0E0E0E0E0E06D
:1025F000E0E0E0DFDDDDDDDEDCDCD2D0D2D2D4D045
:10260000D2D3D4D4D5D6D7D9DADADCEAC97C8ACD0C
:10261000F9F7F8F8F6F6F5CE78F2D6A9F5F5F6F86A
:10262000F6F6F6F6F6F6F6F6F6F6F8F5FBA2046E12
:102630007C949E67263636C9F5F7F7F6F6F6F6F778
:10264000F8F6F6F6F6F5F4FF9CFFD98BEBFBF8F8FD
:10265000F6F6F6FAF4B284BCEEE2DDE0E0DFDDDDB2
:10266000DDDDDDDDDDDEDCDCDCDADEDED1CFD1D2CE
:10267000D3D0D1D3D3D5D7D7D8D8E1DEB27DA5E298
:10268000FFFEF8F8F6F4F4F2F7AEA7FFFFA6FAF7AC
:10269000F7F8F6F6F6F6F6F6F6F6F7F6F8F6ED3C97
:1026A0003C1D69007D3929053A00FFF8F5F6F7F67B
:1026B000F6F8F8F7F7F7F6F2F7D1C2F2FF99CFFC88
:1026C000F8F7F5F6F7F5F8FFF1BE92AFE9E2DFDDD6
:1026D000DADBDCDBDAD9DADADCDCDCDBDDDDD2CE5E
:1026E000CED2D2D0D1D1D0D3D8DCDCE0BF70A6FF1F
:1026F000FBF8F6F6F5F6F6F6F6F7EB7EE2F4F3CC39
:10270000E4F6F2F8F6F6F6F6F6F6F6F6FDF7F8FF6A
:102710008B3D33232104221E2805337A7FF5F3F6FF
:10272000F8F6F7F8F8F8F8F8F8F4F69BF4F7F7EDA0
:10273000A7FBF8F5FCF7F6F6F6F4F5F7FFC57ED241
:10274000E6DEE2DCDADADDDEDCDCDCDCDCDCDADABC
:10275000D2CFD1D2D2D0D3D5D2D8D9EAB18BB1F1A0
:10276000FFF3F6F4F6F7F8F8F8F7F7FADA77FDF290
:10277000F3F09DFEF5F8F6F6F6F6F6F6F5F6F7F751
:10278000F5D8290604032B042A25292600AF94CF67
:10279000F9F5F6F6F6F8F8F8F8F8F9F3ECABFDF61B
:1027A000F3F78EEBF9F5F9F7F6F6F6F8F6F3F5FC34
:1027B000F2B894BFE9DDDADBDCDDDBDBDADADBDCC7
:1027C000DADAD2D2D2D2D4D2D3D5D8DADE7FA1F916
:1027D000F9F4F6F6F7F6F8F8F8F8F8F8F8F8B0CBF8
:1027E000F9F6F6FDBBD8F4F8F6F6F6F6F7F6F5F7D7
:1027F000F8F5F98F812F2124280404221D31AA9491
:10280000B67EFCF2F1F8F8F8F8F8F8F8F8FDBBEB52
:10281000F5F6F4F3A8C4FAF4F6F7F6F6F6F6F6F6DB
:10282000F6F6F6FCFAA187D8E2DDDEDCDADADADAEF
:10283000DADADADAD2D2D2D4D4D3D4DBDE8786F0B5
:10284000F9F5F5F0EEF5F6F6F9F8F8F8F8F9FBFF1A
:102850009AFCF6F8F6F6FEA2FFF4F6F6F6F6F9F8AC
:10286000F8FAF5FAE688AA00031E28042903273F90
:102870009894A08CB4F3F4F8F8F8F8F8F8F8F8FDA8
:102880008DF8F4F9F6F3E697FEF3F6F7F6F6F6F8B8
:10289000F7F7F8F6F8F8F7FEEF9A8EE2DEDCDADA10
:1028A000DADADADAD8D8D2D4D3D5D7D8D9A089D63B
:1028B000FFF6F6F6F8F6F9F7F7F8F8F8F8F8F8F89A
:1028C000F6F9A4FCF6F6F6F5F7B9D5F6F8F7F7F74A
:1028D000F7F6F7F8F9F76CA99904291B0404291EE7
:1028E0002F1E959195B377FAEFF6F6F6F6F6F6F316
:1028F000F99FD3F6F6F7F5FAFF9BF7F2F3F6F6F643
:10290000F6F8F6F7F8F6F6F6F5F6F6FFD28FACE144
:10291000DADEDBDBD9D5D8D6D2D8D6D5E5C16BDEA9
:10292000FFF9F6F5F6F6F6F6F8F8F8F8F9F9F8F82A
:10293000F8F7F8D4C5F7F6F6F6F6F4FA92F4FAF8E2
:10294000F8F8F7F6F7F9EEB1AC9F6E29271C0427CB
:10295000291B042500969498AA7EFFF8F6F6F6F651
:10296000F3F4F1AAFFF5F6F6F8F4FACCC3FCF2F5AD
:10297000F6F6F6F8F6F8F8F6F6F6F6F6F6F7F5FEE9
:10298000C774DAD9D6D5D5D8D8D6D4D9DACF92A8C3
:10299000F7F7EFF3F7F6F6F7F7F6F8F8F8F8F6F7D3
:1029A000F8F8F8F8F8A7E3F7F6F6F4F3F6FBD9D958
:1029B000F7F5F7F8F7F6F9F5FC8EAE9F2E29041B14
:1029C00004262A1A04292A949799A77AC6F8F4F7B4
:1029D000F7F6F4F9C8E8F4F4F7F6F7F6F6F078FE4F
:1029E000F4F6F7F7F7F7F6F7F7F6F6F6F6F6F6F881
:1029F000F7F7FDF097A0E3D8D5DAD7D5D4DCCB7EB6
:102A0000EFF9F6F6F7F6F6F6F4F7F8F6F8F8F8F860
:102A1000F7F7F8F8F8F5FA95F9F7F8F8F5F6F8F8A1
:102A2000FA97FEF7F6F8F7F6FAFB9B9397790328E7
:102A3000281F2526281A042A249196979ABB8EFDD2
:102A4000F5F3F8F6F4F794F5F6F7F9F6F6F8F7F883
:102A500095D3F9F6F8F8F8F6F6F6F6F6F6F6F6F691
:102A6000F6F7F8F7F7F7FFCE83D8D7DDD6D5DACB70
:102A7000ABFBF3F5F5F6F7F6F6F7F8F8F8F8F8F833
:102A8000F8F8F8F6F6F7F8F5E8A5FFF6F8F7F5F533
:102A9000F6F6FCF099F7F3F8F9F4F4EA75B2A40746
:102AA0002804292A1D272103282A29948B9F9FA4C3
:102AB00092A8FCF1F6FAF8B9C9FAF6F6F7F6F6F8C4
:102AC000F8F9F7B9F5F7F8F8F8F8F8F7F6F7F8F7CE
:102AD000F6F8F8F8F8F7F8F7F5FAF38DC9DCD4D67C
:102AE000D08DF9F2FCF6F6F6F6F6F6F7F8F7F7F70A
:102AF000F7F8F8F8F8F6F6F7F8FBD5D3FBF6F8F8A0
:102B0000F4F4F6F7F6FCCDD5F9FAF7F5FFA5B6A281
:102B1000B1282D0404220E393412042A2F7EECA889
:102B2000A1A5BC6FE7F3F4F6FE92FFF6F6F6F6F811
:102B3000F8F8F8F2FFB6FCF8F8F8F8F7F7F6F6F65A
:102B4000F7F7F7F7F5F5F8F8F8F6F6F5F0FA85B9CE
:102B5000DBD19AEDF1F8FAF8F8F7F6F6F8F9F9F6AC
:102B6000F6F6F6F7F8F8F8F6F6F6F6FFB8F8F7F432
:102B7000F6F6F8F8F6F5F9F7F99AE7F3F9F8E990C7
:102B8000A7CA7D29280427190FA3820A2B29322BD3
:102B9000FFFAD0AEB0CA8CFFF5FEB0CAF1F5F6F67A
:102BA000F6F9F9F8F8F5F6D3D2F8F4F7F8F6F6FFF7
:102BB000F5F4F6F6F6F7F8F7F6F7F8F6F6F5F7F8AF
:102BC000FE9EB0D79AFAF3F6FCF8F8F7F6F6F8F9A5
:102BD000F7F6F6F6F6F7F8F8F7F7F9F8F6FFADFCC2
:102BE000F5F4F6F6F8F8F6F5F8FAF8FBA2F9F7FAC4
:102BF000AAB0C4EE28052804260F03A294002B28AF
:102C0000302AB5F8FDE9C9B29EB5F8ED89FFF3F6B3
:102C1000F6F6F6F5F5F5F5F4F4F89AF8F6F8F8FCAA
:102C2000FDC6F4F6F8F8F6F7F8F7F6F6F8F6F6F665
:102C3000F8F5F5FF89CFF3F7F5F4F5F7F7F6F5F7C3
:102C4000F8F7F6F6F6F6F6F7F8FBF7F8F6F6F7F714
:102C5000A0FEF4F4F6F6F8F8F7F7F8F7F8F4F8ADA4
:102C6000EDF396E9FBB6312E2A28030E32A4A10C0F
:102C700004292C066EF9F3FBFAE9CC83F1C3DCF8E6
:102C8000F8F7F7F7F7F5F5F5F5F5F5F7F1F4F7F7E8
:102C9000F7F6FCCCD5F8F9F5F6F7F8F8F8F8F8F708
:102CA000F7F7F7F3F7F8E8A2FBF6F6F4F4F6F6F424
:102CB000F4F6F8F7F6F6F6F6F6F7FCE7F8F6F6F6B9
:102CC000F6F3E2F5F7F5F6F6F8F8F8F8F8F8F8F8AC
:102CD000F8F7B795EAF3FF743B2C042C1209009621
:102CE000A71903292C3A3FF1F5F9F3F9FAE995A36D
:102CF000F4F6F8F8F8F8F8F6F6F6F6F6F6FAF9F665
:102D0000F6F6F6F4F6F39EFDF6F5F6F7F8F8F7F7B3
:102D1000F8F8F8F8F6F6F6F5FD9BF5F6F6F4F4F6A5
:102D2000F6F5F4F8F8F7F6F6F6F6F6F6F8BAF8F57A
:102D3000F6F6F6F5F4F5F7F8F6F6F8F8F8F8F8F828
:102D4000F8F8F8F9EED0F8F2F43C322904270A003A
:102D50006D92A025142B2A323BCFF5F6F4F4F5F74B
:102D6000EBEDF4F5F9F8F8F8F8F6F6F6F6F6F6F60F
:102D7000F8F7F6F6F6F6F4FB99D8FAF4F6F7F8F762
:102D8000F6F6F8F8F8F8F7F6F6F7F7DCF7F6F6F6F1
:102D9000F6F6F6F4F6F8F8F7F6F6F6F6F5FDAAB25A
:102DA000F9F7F6F6F6F5F4F6F6F5F6F6F8F8F8F8BB
:102DB000F8F8F8F8F8F8F8F8F7FE99322F282A15FD
:102DC0000B057C899F300B2A292F3B96FFEEF5F6E9
:102DD000F5F4F6F7F4F5F8F8F8F8F8F6F6F6F6F68E
:102DE000F6F5F6F8F8F8F8F6F5F7B8AAF6F6F8F703
:102DF000F6F7F8F8F8F8F8F8F8F8F6F7F5FEF7F659
:102E0000F6F6F6F6F6F5F6F7F7F6F6F6F6F7FBE869
:102E100076F8F7F5F6F6F6F6F7F7F6F5F6F6F8F8CB
:102E2000F8F8F8F8F7F7F7F7F7F7F4FB07062D04CB
:102E3000040A0E0688859F350025282C3765FBF08F
:102E4000F7F6F5F5F5F6F5F7F8F8F8F8F8F7F7F717
:102E5000F7F6F6F5F6F7F8F8F7F7F6F4EB8FCAFCA5
:102E6000F6F7F6F6F7F7F7F7F7F8F8F7F6F6F1F9F9
:102E7000F7F6F6FCF7F6F6F6F6F6F6F6F6F6F6F7E9
:102E8000F9BEA1FFF7F6F6F6F6F7F8F8F7F8F8F856
:102E9000F8F8F8F8F8F8F6F6F6F6F7F8F7D8363660
:102EA00004282500010095879C00081A292930066E
:102EB000EAEBF8F8F8F6F6F6F6F7F8F8F8F8F8F8B6
:102EC000F8F8F8F7F6F6F6F7F8F8F8F6F6F3FF95EF
:102ED000B9EAF8F6F6F7F8F8F6F6F6F7F8FAF6F6CD
:102EE000F4F4F7F4F7CBF8F6F6F6F6F6F6F7F6F8AC
:102EF000F6F6D8A8DAF6F6F6F6F6F6F5F7F8F7F8F5
:102F0000F7F7F8F8F8F8F8F8F6F6F6F6F6F5FF94AD
:102F10003F2F2829180A0D0F9B889C070C122C297B
:102F20003030ACEEF3F7F7F6F6F7F7F7F8F8F8F815
:102F3000F8F8F8F8F8F7F6F6F6F7F8F8F8F6F6F520
:102F4000FDBCBBC6FFF5F6F6F7F7F6F6F6F6FAD7D0
:102F5000F6F5F8F5F6F2FD91EBF6F6F6F6F8F8F878
:102F6000F7FAF5FAB98CF0F2F6F6F6F6F6F5F5F8AA
:102F7000F8F8F8F8F8F8F8F8F8F8F6F6F6F6F8F4DD
:102F8000FA00062B27040C0A0D189E8998000E0AD9
:102F90002B282C3A71F7F4F6F6F6F6F8F8F6F8F86E
:102FA000F8F8F8F8F8F8F8F7F6F8F8F7F7F8F7F8A7
:102FB000F6F4F2DEABB8E8F9F6F6F6F6F8F8F8F75C
:102FC000FDCBF5F6F6F4F8F3FCC0E1F4F6F7F7F70D
:102FD000F8F8F7FBFAC3B797FAF5F5F7F6F6F6F552
:102FE000F6F7F8F8F8F8F8F8F8F8F8F8F6F5F6F66D
:102FF000F8F5CE34052A0424080E0A259F8A93008A
:103000000F092529293707FAF3F6F6F7F7F8F7F746
:10301000F8F8F8F8F8F6F6F6F6F6F6F7F7F6F7F742
:10302000F7F7F6F5F3ED9BB9C4FAF6F6F6F6F5F513
:10303000F5F5FFC1F7F7F4F5FAF4FCD8D7F3F6F796
:10304000F8F8F8F8F8F2F1B499D3FAF6F8F7F6F6DA
:10305000F6F6F6F6F8F8F8F8F8F8F8F8F8F8F8F5FB
:10306000F6F7F4F38A362D28251C080F003D998DBC
:10307000906B0C091829290534D5F7F6F6F7F8F7FF
:10308000F4F8F8F8F8F8F8F6F6F6F6F6F6F6F6F6D6
:10309000F6F6F6F6F6F6F6F888BAB5EFF6F6F6F6C0
:1030A000F6F6F6F6FFBFF5F8F6F6F9F4F8E8C8F824
:1030B000F6F7F8F8F8F8F7FBCECD82FFF8F6F8F758
:1030C000F6F6F6F6F6F6F8F8F8F8F8F8F8F8F8F88C
:1030D000F8F5F6F5F1F700062B04041108010700D6
:1030E000968C906F080E0127042C3868FFF6F6F7CF
:1030F000F8F7F5F8F8F8F8F8F8F6F6F6F6F6F6F662
:10310000F6F6F6F6F6F6F6F6F6F899B3B0E4FAF651
:10311000F6F6F6F6F6F7F8BCF2F7F6F9F6F4F7F08D
:10312000C0F9F6F6F6F8F8F8F6EFB6C197FFF5F63F
:10313000F4F5F6F6F6F5F5F8F8F8F8F8F8F8F8F822
:10314000F8F8F8F8F6F6F5E506322B262B0A090111
:103150000039958C8A7C000F0A26282A0638EAF561
:10316000F8F6F6F8F8F7F7F8F8F8F8F6F6F6F6F6EF
:10317000F6F6F6F6F6F6F6F8F8F7F6FABCA6ADCDE2
:10318000FDF4F6F6F5F8F8F9E3C1F2F7F9F8F7F41B
:10319000F7FAAEFFF6F6F6F8F8F7FEC2BA92C5F700
:1031A000F6F6F4F5F6F6F6F5F5F8F8F8F8F8F8F8B6
:1031B000F8F8F8F8F8F8F6F6FF9C36052804220827
:1031C000090E083E958B907400010821272A3406C9
:1031D000CAF7F6F5F6F8F8F7F7F8F8F8F8F6F6F6AD
:1031E000F6F6F6F6F6F6F6F6F6F8F8F7F6F6DF9AED
:1031F000AEB9FBF5F6F6F5F8F6FEB9DEF1F7F9F83B
:10320000F8F6F6FEA4FFF9F8F4F5F6F4F3B6B46EAA
:10321000EBF5F6F6F6F7F8F8F8F7F5F5F5F5F6F656
:10322000F7F7F6F8F8F8F6F6F7F6FF07062B042896
:1032300002000B0D0B0093929669080E0A1B2928B9
:103240002F3B96F8F4F8FAF6F6F6F6F8F8F8F8F5F3
:10325000F5F5F5F6F8F8F8F8F8F8F8F6F6F6F6F900
:10326000F88DBCB1EFF5F8F8F6F6F5FCA6F5F5F635
:10327000F6F6F8F6F6FA9CFFFAF8F4F6F6FACFB39B
:10328000AF70FFF9F6F6F6F7F8F8F8F8F7F7F7F792
:10329000F6F6F6F6F8F8F8F8F6F6F5F5D736342A35
:1032A00004040E08010B0F3E948F9964090C0E1153
:1032B0002A042A0666FFF8F6F7F6F6F6F6F8F8F8A6
:1032C000F8F7F7F7F7F6F8F8F8F7F6F6F6F6F6F691
:1032D000F6F7FF91C1ABDFF7F8F8F6F6F7F6AAFFBD
:1032E000F5F6F6F6F8F6F6F8A2F5FAF9F4F7F8F8C6
:1032F000B7B19FA6F9F8F6F6F6F7F8F8F8F8F8F887
:10330000F6F6F5F7F6F6F8F8F8F8F6F6F6FAB00687
:103310003128272708090E061F38948D9A00090ABC
:10332000010A2B04293506F9F8F7F6F6F6F6F6F851
:10333000F8F8F8F8F8F8F8F8F8F8F8F8F8F8F8F80D
:10334000F8F8F8F5FFABC4AED8F5F6F6F6F6F5ECFE
:10335000C8FCF6F6F6F6F8F6F6F8B2D8F9FAF4F68E
:10336000F8E4B0A99AD8F4F4F6F6F6F7F8F8F8F815
:10337000F8F8F5F5F5F7F7F7F7F8F8F8F6F6F2F9E3
:1033800086380504040300090E202B3C948C9A0017
:103390000A0901002528290530A8FDF7F5F6F6F6FB
:1033A000F6F8F8F8F8F6F6F6F6F7F8F8F8F9F9F9A5
:1033B000F9F9F9F8F8F9F7C1A9B4CCF7F5F6F5F68B
:1033C000FBC8F0F4F6F6F6F6F8F3F8FBC5BAF4F637
:1033D000F4F5FACBADAF97F0F5F6F6F6F6F7F8F8A8
:1033E000F8F7F6F6F8F9F5F6F8F8F8F7F6F6F8F66D
:1033F000F4FE693B2B04271B0800042A283B968F08
:103400009B00270A0B001A29042C3600FFF6F4F95A
:10341000F9F9F9F6F6F6F6F6F6F6F6F8F8F8F8F938
:10342000F9F9F9F9F9F8F8F8F4D199B9C6F6F5F51A
:10343000F0F6FFB1F5F7F6F6F6F6F8F4F7F9E094E2
:10344000FAF5F4F6FDBFADB78DFEF4F7F6F6F6F734
:10345000F8F8F8F7F6F6F8F6F7F7F8F8F8F7F6F6FA
:10346000F8F4F7F400372904041709012B2A253949
:10347000958F9E00262D0B081028042A0606EBF6D1
:10348000F2F9F8F8F8F5F5F6F6F6F6F6F6F6F6F8D7
:10349000F8F7F6F6F6F6F6F7F8F8F3EB82BAC3F8B3
:1034A000F5F6F6F8EEA7F8F7F7F6F6F6F6F4F6F214
:1034B000FE7FF8F7F4F4FDB6ADBE97F7F4F7F6F635
:1034C000F6F7F8F8F8F6F6F6F6F6F8F8F8F8F6F68D
:1034D000F6F6F8F8F3E500332B04041109172A2C4B
:1034E000043E968FA000290429010B2A042B3538AD
:1034F000D3FBF2F6F6F6F6F6F6F6F6F6F6F6F6F68E
:10350000F6F6F6F6F6F6F6F6F6F6F6F6F3FA7BB912
:10351000BFF8F6F6F7F4C4D0F9F7F6F6F7F7F6F4D5
:10352000F6F2FFA0E7F7F4F5FDB2ACA1ACF1F4F7C9
:10353000F6F6F6F7F8F8F8F6F6F6F6F6F8F8F8F81C
:10354000F6F6F6F6F8F6F9D43B352C042A10080303
:1035500029292B009794A400302704200027042A4F
:1035600033079FFFF3F8F6F6F6F6F6F6F6F6F6F6FC
:10357000F6F6F6F6F6F6F6F6F6F6F6F6F6F6F4FDE6
:103580008AB2BEF7F5F6F8FC9FF7F8F9F6F6FAFA04
:1035900004EC20F0FB0EDBCFF3FFDB06F350000959
:1035A0000AE052EC20F0FA0EBDEC20F0F3E1151C1D
:1035B000F1E1010E01D0000E33EF20F004EC20F019
:1035C0003B0EE12402E3E168E652E16E010EDB6AA4
:1035D000020EDB6AF90EDBCFF6FFFA0EDBCFF7FF48
:1035E000FB0EDBCFF8FF0800F550DF6EDF5002E185
:1035F00057EF1FF0250EDF5C02E04AEF1FF0030ECD
:10360000DB6A040EDB6A050EDB6A060EDB6A070E58
:10361000DB6A6CEC1FF02D0EDF5C0CE02B0EDF5C28
:1036200009E0200EDF5C06E0230EDF5C03E0300ED5
:10363000DF5C1AE1DF50300A14E0130A0FE0030ADE
:103640000AE00B0A05E0060AE4E1030EDB80E1D79D
:10365000030EDB82DED7030EDB84DBD7030EDB86B3
:10366000D8D7030EDB88D5D72A0EDF5C1BE168ECC8
:103670001FF0B6EC1FF010E0030EDB80086809684D
:10368000130EDBCF0DF0140EDBCF0EF0F9EC25F0AE
:10369000040E06C0DBFF03D0130E9FEC1FF06CEC92
:1036A0001FF00BD0090EDB6A0DEC20F003E081EC7B
:1036B00020F0FAD7090E9FEC1FF0030EDBB0DB9869
:1036C0002E0EDF5C1BE16CEC1FF02A0EDF5C0BE1C1
:1036D00068EC1FF0B6EC1FF003E1130EF1EC1FF0E5
:1036E0006CEC1FF00BD0090EDB6A0DEC20F003E050
:1036F00081EC20F0FAD7090EF1EC1FF0680EDF5CC8
:1037000007E16CEC1FF0680EDF5C1DE1030E18D0C2
:10371000740EDF5C17E07A0EDF5C14E0480EDF5CAD
:1037200006E0540EDF5C03E05A0EDF5C02E1020E9D
:1037300007D06C0EDF5C03E06A0EDF5C04E1010E73
:1037400044EC20F0C9DBDF506E0A01E17FD31E0A92
:1037500001E192D1200A01E18FD13F0A01E149D173
:103760001A0A01E146D10D0A01E143D1200A01E123
:1037700040D13A0A01E13DD1200A01E13AD1260ABD
:1037800001E135D10D0A01E132D11A0A01E1D9D0A6
:10379000200A4AE0300A1FE0460A0EE0250A01E04E
:1037A00083D3D950F90FE96EFF0EDA20EA6E010ECD
:1037B000EE5E000EEE5AEE5A52EC20F0250EE66E4A
:1037C00095DB03E1151C01E169D34EEC20F001E229
:1037D0006BD3DB2A69D3080EDB6A040EDB500108C9
:1037E00006E2040EDB0416EC20F0DB508BDB080E47
:1037F000DB5009E0030EDB50010B05E172DB01E059
:103800004DD3080EDB6A64DBEFCFDFFFC6EC20F0A0
:1038100003E1151C01E142D34EEC20F001E3DB2A69
:1038200060DB01E141D33AD3070EDB5002080FE120
:1038300092EC20F0030E59EC20F00E0EEECFDBFFE1
:103840000F0EEECFDBFF100EEECFDBFF20D0F70E1A
:10385000DBCF17F0F80EDBCF18F0020E175E000E6C
:10386000185AF70E17C0DBFFF80E18C0DBFF17C0A1
:10387000E9FF18C0EAFF49EC20F0166A0E0E14C0EA
:10388000DBFF0F0E15C0DBFF100E16C0DBFF0E0EA8
:10389000DBCFE6FF0F0EDBCFE6FF100EDBCFE6FF40
:1038A000D4EC25F0E552E552E552130E07C0DBFFDC
:1038B000140E08C0DBFF060EDB5005E0130E8DEC86
:1038C00020F001E26ADBB1EC20F002E2130E37DBFC
:1038D00074EC20F006E0040E8DEC20F002E2050E00
:1038E0002EDB030EDBB005D0FCDA01E0D7D2080EE8
:1038F000DB6A090EDB6A0E0EDBCFF6FF0F0EDBCFA5
:10390000F7FF100EDBCFF8FF0800F550DF6EDF5039
:1039100014E0B7EC20F011E2C6EC20F003E1151C36
:1039200001E1BCD2BBDB01E3DB2A090EDB2AD95063
:103930000E0FE96E000ECBDBE7D7D3DA01E1B4D28C
:10394000ADD2C6DA110EEECFDBFF120EEDCFDBFFEC
:10395000110EDBCFE6FF120EDBCFE6FFC6EC25F043
:10396000E552E552130EF3CFDBFF140EF4CFDBFF6D
:10397000060EDB5004E0130ED0DB01E20EDBB1ECEF
:1039800020F002E2130EDBDAAFDB05E0040EC5DB4C
:1039900002E2050ED4DA030EDBB005D0A2DA01E0B4
:1039A0007DD2080EDB6A090EDB6A110EDBCFE9FF60
:1039B000120EDBCFEAFFEFCFDFFFDF5014E0D7DBE3
:1039C00012E2E4DB03E1151C01E168D267DB01E3ED
:1039D000DB2A090EDB2A110EDB2ADBCFE9FF120EF0
:1039E000E8E3DB2AE6D77DDA01E15ED257D2030EA7
:1039F000DB8E070EDB0410E195DB040E5ADB0A0EAA
:103A0000EECFDBFF0B0EEECFDBFF0C0EEECFDBFFBE
:103A10000D0EEECFDBFF6CD0070EDB5003082CE160
:103A2000030EDBAE0DD0B2DA020E76DAEFCF14F071
:103A3000156A166A176A14AE39D01568166835D03B
:103A4000F70EDBCF15F0F80EDBCF16F0020E155E89
:103A5000000E165AF70E15C0DBFFF80E16C0DBFF7E
:103A600015C0E9FF16C0EAFFEFCF14F00A0E14C02C
:103A7000DBFF0B0EDB6A38D0070EDB50020809E1D2
:103A8000030EDBAE04D059DB16AE10D00ED055DBE2
:103A90000DD0030EDBAE12D079DA020E3DDAF9DA80
:103AA000166A176A15AE02D016681768E2DA0C0EAD
:103AB00016C0DBFF0D0E17C0DBFF1AD0F70EDBCFF1
:103AC00016F0F80EDBCF17F0020E165E000E175A36
:103AD000F70E16C0DBFFF80E17C0DBFF16C0E9FFBC
:103AE00017C0EAFFD6DAC5DA0C0EDB6A0D0EDB6A08
:103AF000060EDB5005E1010EF36E050EF3CFDBFF82
:103B0000150EDB6A160EDB6AD950370F146E000EE5
:103B1000DA20156E390E14C0DBFF3A0E15C0DBFF3C
:103B2000380EDB6A080EDB6A0A0EAEDADF50780A5E
:103B300012E0200A10E0280A0CE0200A0AE03F0AFE
:103B400006E00D0A02E0200A08E1020E05D0080E88
:103B500003D0080EDF26100E97DA030EDBBE02D06C
:103B6000DB92DB94DB50800B24E08ADAD890030EE2
:103B7000EB50000A08E6000EEE5C000EEE58000E58
:103B8000EE58000EEE5815E213DA0B680C680D685B
:103B90000E688EEC25F00A0E02C0DBFF0B0E03C090
:103BA000DBFF0C0E04C0DBFF0D0E05C0DBFF2D0E8E
:103BB00008D0030EDBA202D02B0E03D0DBA408D06A
:103BC000200EF36E170EF3CFDBFF150EDB2A02D0AB
:103BD000170EDB6A050EDB5003E1B7D901E189D08E
:103BE000440E146E4D0E156E000E166E070EDBCFD2
:103BF00017F0186A196A1A6A17C00BF018C00CF08F
:103C000019C00DF01AC00EF0D3D926EC26F01450CE
:103C10000224F36E15500320F46E16500420F86E43
:103C2000F4CFF7FFF3CFF6FF0800090EF5CFDBFF67
:103C3000580EDF5C0FE1610EF36E090E7BD90AE3CB
:103C4000200E146E090EDBCFE7FF1450E75E090E5D
:103C5000E7CFDBFF070EDBCF14F0156A166A176A91
:103C60000FDA14C00BF015C00CF016C00DF017C021
:103C70000EF0EECF06F0EECF07F0EECF08F0EFCF6C
:103C800009F026EC26F009C0EDFF08C0EDFF07C0E3
:103C9000EDFF06C0EFFF390EDBCFE9FFDB063A0E82
:103CA000DBCFEAFF01E2DB06090EDBCFEFFF150EEB
:103CB000DB2A4BD995E1030EDBA61DD06F0EDF5C2E
:103CC00006E1C1D918E3150EDB285BDA14D0780EB3
:103CD000DF5C09E0580EDF5C06E0620EDF5C03E0AB
:103CE000420EDF5C08E1020EF36E160EF3CFDBFF2F
:103CF00002D0150EDB6A030EDB50100B0EE0040E33
:103D0000DBCF14F0050EDB50D880145406E2060E0B
:103D1000DB5003E1040EDB5034DA95D90AE2050EDC
:103D2000DBCFE7FF150EDB50E75E050EE7CFDBFFCD
:103D300002D0050EDB6A040EDBCF14F0160E45D957
:103D4000D880145414E2160EDBCFE6FF150EDBCF3D
:103D5000E6FF040EDBCFE6FF050EDB50E552E75C25
:103D6000E552D880E754E552D880E7545FD9030E76
:103D7000DB50010B0BE1080EDB5008E0B2D801E08C
:103D80008DD0080EDB50BED8080EDB6A170EDB5054
:103D900007E088D9170EF1D903E1151C01E17ED0A7
:103DA000160EDB5016E07ED9300EE66E9FD802E18B
:103DB000151C74E077D9DFCFE6FF4CEC25F0E55217
:103DC000E552E552F4CF15F00001F31C02E1151C99
:103DD00065E0050EDBCF14F0160EDB50D8801454CE
:103DE00009E2050EDBCFE7FF160EDB50E75E050E9E
:103DF000E7CFDBFF300EE66E050ECBD94FE1390E73
:103E0000DB2ADBCFE9FF3A0E01E3DB2ADBCFEAFF57
:103E1000090EEFCFDBFFDB500EE044D9090EADD920
:103E200002E1151C3BE0390EDB2ADBCFE9FF3A0E3D
:103E3000EDE3DB2AEBD755D831E1160EDBCFE6FFF9
:103E4000080EC3D8E552E7245DD82ED0070EDB500C
:103E5000030A1CE0010A14E0030A07E07BD9DBCF68
:103E6000EEFF020EDBCFEDFF1FD0F5D8196A17AEBB
:103E700002D0186819682CD8BCD819C0EEFF14D02D
:103E8000EAD817BE186824D8B4D80ED063D9DBCFCF
:103E9000EFFF0AD07BD905E1151C03E1F368F46854
:103EA00010D0FCD801E3DB2A79D9F3EF1AF0010E28
:103EB000DBCF14F0020EDBCF15F014C0F3FF15C0FA
:103EC000F4FF3B0EE15C02E2E16AE552E16ECBD029
:103ED00029D9020E59EF20F061D90800F550DF6EA4
:103EE0001200200EE66E080EC9EF20F04CEC25F013
:103EF000E552E552E552F3CF14F0F4CF15F000018E
:103F0000F31C1200146E156AD950010F4DD91450CC
:103F1000EE261550ED221200185E000E195AF70E0B
:103F200018C0DBFFF80E19C0DBFF18C0E9FF19C08D
:103F3000EAFF1200DBCFF4FFF350F45C1200DB5019
:103F4000E76E040EE7CFDBFF12000A0EDBCF14F0A2
:103F50000B0EDBCF15F00C0EDBCF16F00D0EDBCF0A
:103F600017F014501510161017101200130EEECF84
:103F7000DBFF140EEDCFDBFF130EDBCF14F0140EBE
:103F8000DBCF15F00001800E15141200F70EDBCF09
:103F900018F0F80EDBCF19F01200050EDB50E66EBC
:103FA000D950130F01D9E552E750EE6EED6A1200B9
:103FB0000A0EDBCF06F00B0EDBCF07F00C0EDBCFCB
:103FC00008F00D0EDBCF09F01200DBCFE6FF150E77
:103FD000DBCFE6FF050EDB50E552E724E552E72490
:103FE0001200DB50CED8010EF36E060EF3CFDBFFCE
:103FF0001200EE50EFCFEAFFE96E16C0EEFF17C0D9
:10400000EEFF18C0EEFF1200D9CFE6FFDACFE6FFD1
:10401000E1CFD9FFE2CFDAFF1200DFCFE6FFE66A99
:1040200064EC26F0E552E552F3501200E76E080EFC
:10403000E7CFDBFF1200EECF14F0EECF15F0EFCF9D
:1040400016F0176A1200050EDBCF14F0150EDB50C8
:10405000D88014541200010EDBCF16F0020EDBCF15
:1040600017F0186A1200E552E5CFDAFFE7CFD9FF63
:1040700012000A0E14C0DBFF0B0E15C0DBFF12008E
:10408000D9500A0FD4EF20F0F36E070EF3CFDBFF09
:104090001200EECF14F0EFCF15F01200010EDB2A64
:1040A000020E1200FC0EDBCFE6FFFD0EDBCFE6FFBB
:1040B0001200145E000E155AF70E14C0DBFFF80E46
:1040C00015C0DBFF14C0E9FF15C0EAFF1200DA20BB
:1040D000EA6EEF2AEECFF6FF000EEF22EECFF7FFEB
:1040E000EF22EECFF8FF1200040EDBCFE6FF130E37
:1040F000DB50E552E75C9ADFDB5004DF060EDB5055
:104100001200090EDB500A0DF350DF24D00FE76ECA
:10411000090EE7CFDBFF6CEF1FF0DB50F36E050EEF
:104120009AEF1FF0F70EDBCF14F0F80EDBCF15F08F
:104130001200DFCFE6FF76EF1FF028DF030EECDE84
:104140001BEF20F0C8EC1AF0E552E552E552E552BB
:1041500000091200BDDEEE50EFCFEAFFE96E010E5E
:104160001200130EDB50F36E040E9AEF1FF0040ED4
:10417000DB50F36E090E9AEF1FF0DBCFE6FF76EF10
:104180001FF0E76E050EE7CFDBFF12008BDF99EF24
:1041900020F0DBCFE6FF86DFA2EF20F0D950F90F49
:1041A000E96EFF0E67EF20F0E96E000EDA20EA6E8E
:0241B0001200FB
:0E41B200D9CFE6FFE1CFD9FF040EE126DE6A89
:1041C000DD6ADECF14F0DDCF15F0D890155004E68F
:1041D000020E145C000E15584AE2020EDB6A030E52
:1041E000DB6A020EDBCF14F0030EDBCF15F0D890A4
:1041F000155004E6E40E145C000E155833E2DECFD1
:1042000014F0DDCF15F0E40E1502F3CF15F0140213
:10421000F3CF14F0F4501526600E1426000E15226C
:10422000020EDB501424E96E030EDB501520EA6EFB
:10423000EF50E66EE66AC40E166E4C0E176E186AE4
:1042400016C0E6FF17C0E6FF18C0E6FFBBEC24F07F
:10425000196E050EE15E1950020EDB2A030E01E312
:10426000DB2ABFD7DF2A010E01E3DB2AAAD7040E1F
:10427000E15C02E2E16AE552E16EE552E7CFD9FF87
:104280001200D9CFE6FFE1CFD9FFFD0EDBCF08F05A
:10429000FE0EDBCF09F0040E081801E1095001E120
:1042A0008AD1030E081801E1095001E127D1020E5D
:1042B000081801E1095001E1C4D0010E081801E11C
:1042C000095062E0085001E1095001E0D1D1020E2D
:1042D000086E096AFB0EDBCF0DF0FC0EDBCF0EF093
:1042E000F9EC25F006C0E9FF07C0EAFF600EE926F9
:1042F000000EEA22210EEF6E020E086E096AFB0E16
:10430000DBCF0DF0FC0EDBCF0EF0F9EC25F006C094
:10431000E9FF07C0EAFF010EE926000EEA22600E5F
:10432000E926000EEA22210EEF6E020E086E096ADF
:10433000FB0EDBCF0DF0FC0EDBCF0EF0F9EC25F021
:1043400006C0E9FF07C0EAFF440EE926010EEA2293
:10435000210EEF6E020E086E096AFB0EDBCF0DF028
:10436000FC0EDBCF0EF0F9EC25F006C0E9FF07C02C
:10437000EAFF010EE926000EEA22440EE926010EAC
:10438000EA22210EEF6E74D1020E086E096AFB0E4E
:10439000DBCF0DF0FC0EDBCF0EF0F9EC25F006C004
:1043A000E9FF07C0EAFF600EE926000EEA227D0E53
:1043B000EF6E020E086E096AFB0EDBCF0DF0FC0EED
:1043C000DBCF0EF0F9EC25F006C0E9FF07C0EAFFED
:1043D000010EE926000EEA22600EE926000EEA220E
:1043E000210EEF6E020E086E096AFB0EDBCF0DF098
:1043F000FC0EDBCF0EF0F9EC25F006C0E9FF07C09C
:10440000EAFF440EE926010EEA22210EEF6E020EAB
:10441000086E096AFB0EDBCF0DF0FC0EDBCF0EF051
:10442000F9EC25F006C0E9FF07C0EAFF010EE92616
:10443000000EEA22440EE926010EEA22210EEF6E5A
:1044400017D1020E086E096AFB0EDBCF0DF0FC0ED1
:10445000DBCF0EF0F9EC25F006C0E9FF07C0EAFF5C
:10446000600EE926000EEA227D0EEF6E020E086E47
:10447000096AFB0EDBCF0DF0FC0EDBCF0EF0F9EC82
:1044800025F006C0E9FF07C0EAFF010EE926000E8D
:10449000EA22600EE926000EEA22210EEF6E020EDD
:1044A000086E096AFB0EDBCF0DF0FC0EDBCF0EF0C1
:1044B000F9EC25F006C0E9FF07C0EAFF440EE92643
:1044C000010EEA22210EEF6E020E086E096AFB0E43
:1044D000DBCF0DF0FC0EDBCF0EF0F9EC25F006C0C3
:1044E000E9FF07C0EAFF010EE926000EEA22440EAA
:1044F000E926010EEA227D0EEF6EBAD0020E086E9A
:10450000096AFB0EDBCF0DF0FC0EDBCF0EF0F9ECF1
:1045100025F006C0E9FF07C0EAFF600EE926000E9D
:10452000EA227D0EEF6E020E086E096AFB0EDBCFEB
:104530000DF0FC0EDBCF0EF0F9EC25F006C0E9FF24
:1045400007C0EAFF010EE926000EEA22600EE92606
:10455000000EEA227D0EEF6E020E086E096AFB0E57
:10456000DBCF0DF0FC0EDBCF0EF0F9EC25F006C032
:10457000E9FF07C0EAFF440EE926010EEA22210EF8
:10458000EF6E020E086E096AFB0EDBCF0DF0FC0E1B
:10459000DBCF0EF0F9EC25F006C0E9FF07C0EAFF1B
:1045A000010EE926000EEA22440EE926010EEA2257
:1045B0007D0EEF6E5DD0020E086E096AFB0EDBCF3A
:1045C0000DF0FC0EDBCF0EF0F9EC25F006C0E9FF94
:1045D00007C0EAFF600EE926000EEA227D0EEF6EAC
:1045E000020E086E096AFB0EDBCF0DF0FC0EDBCF6E
:1045F0000EF0F9EC25F006C0E9FF07C0EAFF010E56
:10460000E926000EEA22600EE926000EEA227D0E5F
:10461000EF6E020E086E096AFB0EDBCF0DF0FC0E8A
:10462000DBCF0EF0F9EC25F006C0E9FF07C0EAFF8A
:10463000440EE926010EEA227D0EEF6E020E086E90
:10464000096AFB0EDBCF0DF0FC0EDBCF0EF0F9ECB0
:1046500025F006C0E9FF07C0EAFF010EE926000EBB
:10466000EA22440EE926010EEA227D0EEF6E00D00A
:10467000E552E7CFD9FF1200D9CFE6FFE1CFD9FF4E
:10468000030EE126DE6ADD6ADECF14F0DDCF15F021
:10469000D890155004E6720E145C000E155801E314
:1046A0009CD0FD0EDBCF14F0FE0EDBCF15F0720EAA
:1046B0001502F3CF15F01402F3CF14F0F4501526C1
:1046C000200E1426000E1522DE501424F66EDD5046
:1046D0001520F76E0800020EF5CFDBFF000EF36E1B
:1046E000020EDBCFF4FFF350F45C11E3020EDB505B
:1046F00033080DE3DECFE6FFDDCFE6FF000EE66E0A
:10470000E66ABFDDE552E552E552E55261D0020EA0
:10471000DB50330811E2020EDB5066080DE3DECFFA
:10472000E6FFDDCFE6FF010EE66EE66AAADDE552A2
:10473000E552E552E5524CD0020EDB50660818E215
:10474000020EDB50146E156A153404E214509908F9
:10475000000E15540DE3DECFE6FFDDCFE6FF020EBF
:10476000E66EE66A8EDDE552E552E552E55230D05E
:10477000020EDB50146E156A153404E214509908C9
:10478000000E155419E2020EDB50166E176AD8900F
:10479000175004E6CC0E165C000E17580DE2DECF63
:1047A000E6FFDDCFE6FF030EE66EE66A6ADDE55260
:1047B000E552E552E5520CD0DECFE6FFDDCFE6FF55
:1047C000040EE66EE66A5DDDE552E552E552E5521D
:1047D000DF2A010E01E3DB2A57D7030EE15C02E278
:1047E000E16AE552E16EE552E7CFD9FF12008C6A2B
:1047F000956A320EE66EE66A3C0EE66E07EC25F030
:10480000E552E552E55202013351341163E1BF0E26
:10481000146E4C0E156E166A14C0E6FF15C0E6FF46
:1048200016C0E6FFBBEC24F0E552E552E552A40EBB
:10483000146E4C0E156E166A14C0E6FF15C0E6FF26
:1048400016C0E6FFBBEC24F0E552E552E552F00E4F
:10485000E66EE66AE40EE66EE66A9C0E146E4C0E98
:10486000156E166A14C0E6FF15C0E6FF16C0E6FF17
:10487000BBEC24F0176E070EE15E1750940E146E19
:104880004C0E156E166A14C0E6FF15C0E6FF16C082
:10489000E6FFBBEC24F0E552E552E5520201356B30
:1048A000366B780E36AF02D0D89003D0355D000E4F
:1048B00036590DE235C2E6FF36C2E6FFDDDEE552CF
:1048C000E55277DC0201352B000E3623EAD7010EC4
:0848D000336F346B98D712001E
:0848D800060EF66E000EF76EED
:1048E000000EF86E02010900F5502E6F0900F55018
:1048F0002F6F03E12E6701D03DD00900F550296FDD
:104900000900F5502A6F0900F5502B6F09000900C6
:10491000F550E96E0900F550EA6E0900090009003A
:10492000F5502C6F0900F5502D6F09000900F6CFE6
:1049300030F2F7CF31F2F8CF32F229C2F6FF2AC2B5
:10494000F7FF2BC2F8FF02012C5302E12D5307E0C1
:104950000900F550EE6E2C07F8E22D07F9D730C2AA
:10496000F6FF31C2F7FF32C2F8FF02012E07000E38
:064970002F5BBFD712000F
:0A497600D9CFE6FFDACFE6FFE1CF6C
:10498000D9FFE2CFDAFFE652E652E652E652D950BC
:10499000FB0F146EFF0EDA20156E14C0DEFFDD6E05
:1049A000DECFE6FFDDCFE6FFFB0EDBCFE6FFFC0E42
:1049B000DBCFE6FFFD0EDBCFE6FF37C2E6FF38C2F6
:1049C000E6FFDEEC1AF0146E070EE15C02E2E16A2B
:1049D000E552E16E1450020EF3CFDBFF030EF4CF6D
:1049E000DBFF020EDBCF14F0030EDBCF15F014C09B
:1049F000F3FF15C0F4FF040EE15C02E2E16AE55248
:0E4A0000E16EE552E5CFDAFFE7CFD9FF1200F5
:024A0E00D9CFFE
:104A1000E6FFDACFE6FFE1CFD9FFE2CFDAFFAC6AFB
:104A2000AB6AFD0EDBB0AC88DBA202D0AC8CAB8CE9
:104A3000DBB4AC8EDBA602D0AB8801D0AB8ADBB88E
:104A4000AC849E98DBBAAB86DBAC02D09D8A01D0E9
:104A50009D9A9E9ADBAE02D09D8801D09D98FB0E58
:104A6000DB50AF6EFB0EFC0EDBCF15F015C014F063
:104A7000156A1450B06EAC8AAB8E949C948EAC5078
:104A8000100B04E0AC50800B01E1948CE552E5CFB3
:084A9000DAFFE7CFD9FF1200A5
:084A9800D9CFE6FFDACFE6FFFB
:104AA000E1CFD9FFE2CFDAFFFB0EDBCF14F0FC0E33
:104AB000DBCF15F00001800E15141AE1FB0EDBCFE1
:104AC000E9FFFC0EDBCFEAFFEECFF3FFEDCFF4FF03
:104AD000EE2A000EEF22F3CFE9FFF4CFEAFFFD0E3E
:104AE000DBCFEFFFEF50156AF36E15C0F4FF10D067
:104AF000FB0EDB50FE0806E1FD0EDBCFE6FF94EC7B
:104B000026F005D0FD0EDBCFE6FFABEC26F0E5523C
:0C4B1000E552E5CFDAFFE7CFD9FF120035
:044B1C0006500B0232
:104B2000F3CF02F0F4CF03F00C02F3500326000E93
:104B3000F420046E06500D02F3500426000EF420FB
:104B4000056E06500E02F350052607500B02F35077
:104B50000326F4500422000E052207500C02F350E5
:104B60000426F450052207500D02F3500526085084
:104B70000B02F3500426F450052208500C02F350A7
:0C4B8000052609500B02F3500526120018
:044B8C00FE0EE3CF67
:104B9000E9FFFF0EE3CFEAFFF36AF46AEE5203E0A7
:104BA000F34AF42AFBD71200FF0EE3CFF8FFE552D9
:104BB000FF0EE3CFF7FFE552FF0EE3CFF6FFE5521E
:104BC000E66AE66AE66A0900F55209E0FD0EE32AA4
:104BD00005E1FE0EE32A02E1FF0EE32AF4D7FD0E03
:104BE000E3CF07F0FE0EE3CF08F0FF0EE3CF09F0AE
:024BF0001200B1
:0E4BF20009C013F008C012F008500D02F4CFF5
:104C000007F0F3CF06F009500E02F4CF09F0F3CF0E
:104C100008F00D02F3500726F4500822E86A092232
:104C200012500E02F3500726F4500822E86A0922B7
:104C30000EAE1FEF26F01250085E1350095A13AE45
:0C4C4000000C0D50085E0E50095A000CCC
:044C4C00056A046A87
:104C5000036A026A200EE76ED890063607360836D9
:104C6000093602360336043605360B50025C0C500A
:104C700003580D5004580E50055809E30B50025EBE
:104C80000C50035A0D50045A0E50055A062AE72EAE
:044C9000E4D7120053
:0C4C94003132380A0D0A0D00256420257D
:104CA000640A0D00232043524541544F523A204696
:104CB00072616E63697320652042726D0A0D005047
:074CC000320A0D002563001C
:084CC800F36AF46AFF0EE12417
:104CD000E96EFF0EE220EA6EED6607D02F0EEF645C
:0C4CE00004D03A0EEF6001D0F32A12005D
:044CEC00000EF36E55
:104CF00000EE00F0080E01D81200EA6002D0EE6A61
:0C4D0000FCD7F350E9601200EE6AFCD70B
:044D0C0013EE00F0B2
:104D100023EE00F0F86A019C6CEC24F0ACEC26F079
:084D2000F7EC23F0FBD71200B1
:084D2800FF0EE350ACBA04D009
:104D3000AF6AAB8EAC8A949CACA2FED7AD6EF36E1C
:044D4000F46A1200FF
:0C4D440030313233343536373839616293
:054D50006364656600CC
:024D5600120049
:024D5800120047
:024D5A00FEFF5A
:044D5C000000000053
:020000040030CA
:010001000CF2
:010002001FDE
:010003001EDE
:0100050001F9
:010006008178
:00000001FF
