:020000040000FA
:06000000FBEF02F012000C
:020006000000F8
:08000800D9CFE6FFE1CFD9FFDB
:10001000FD0EDB5002E0848001D08490FE0EDB50A8
:10002000836E8482C8D88492C6D8E552E7CFD9FFC0
:100030001200D9CFE6FFE1CFD9FFFD0EDB0408E1C6
:10004000E66AFE0EDB50800FE66EDEDFE552E5521B
:10005000FD0EDB50020808E1E66AFE0EDB50C00F21
:10006000E66ED2DFE552E552FD0EDB50030808E1F3
:10007000E66AFE0EDB50900FE66EC6DFE552E552F3
:10008000FD0EDB50080808E1E66AFE0EDB50D00FDB
:10009000E66EBADFE552E552E552E7CFD9FF12002E
:1000A0008490010E836E84828CD88492E1EF00F0FC
:1000B000D9CFE6FFE1CFD9FF070EE126330EDF6E81
:1000C000DE52320EDD6E380EF36E020EF3CFDBFF22
:1000D000060EF36E030EF3CFDBFF0C0EF36E040E71
:1000E000F3CFDBFF010EF36E050EF3CFDBFF0F0E38
:1000F000C16E9690969202D0956801D0956A8490D0
:10010000060EDB6AF36EDBCFF4FFF350F45C16E20D
:10011000848251D8D9CF02F0DACF03F0060EDB503B
:100120000F010224E96E000E0320EA6EEF50836E89
:1001300048D8849246D8060EDB2AE4D7070EE15C45
:1001400002E2E16AE552E16EE552E7CFD9FF120023
:10015000D9CFE6FFE1CFD9FF010EE66EFE0EDBCF71
:10016000E6FF52DFE552E552E552E7CFD9FF120034
:10017000D9CFE6FFE1CFD9FFFD0EDBCFE9FFFE0EC1
:10018000DBCFEAFFEF5013E0010EE66EFD0EDBCF92
:10019000E9FFFE0EDBCFEAFFEF50E66E35DFE552FA
:1001A000E552FD0EDB2AFE0E01E3DB2AE5D7E55220
:1001B000E7CFD9FF1200020EE66E09EC03F0E5521C
:1001C00012000A0EE66EDBEC02F0E552120093908C
:1001D0009392939493969388938A938C938E17EF2C
:1001E00003F0D9CFE6FFE1CFD9FFE652DF6A819075
:1001F00081828184818681B803D0410EDF6E0ED06A
:1002000081BA03D0420EDF6E09D081BC03D0430E09
:10021000DF6E04D081BE02D0440EDF6E81808192F9
:100220008184818681B803D0330EDF6E0ED081BA0F
:1002300003D0360EDF6E09D081BC03D0390EDF6EDD
:1002400004D081BE02D0460EDF6E8180818281940F
:10025000818681B803D0320EDF6E0ED081BA03D012
:10026000350EDF6E09D081BC03D0380EDF6E04D0AE
:1002700081BE02D0300EDF6E8180818281848196C2
:1002800081B803D0310EDF6E0ED081BA03D0340EA8
:10029000DF6E09D081BC03D0370EDF6E04D081BE83
:1002A00002D0450EDF6EDF5000D0E552E552E7CFB9
:1002B000D9FF1200D9CFE6FFE1CFD9FF260EE12604
:1002C000D9CFE9FFDACFEAFF0A0EEE6EEE6E0D0E21
:1002D000EE6E440EEE6E690EEE6E670EEE6E690EF9
:1002E000EE6E740EEE6E650EEE6E200EEE6E750EF8
:1002F000EE6E6D0EEE6E610EEE6E200EEE6E740EF4
:10030000EE6E650EEE6E630EEE6E6C0EEE6E610EB0
:10031000EE6E3A0EEE6EEE6AD950150FE96EDACF38
:10032000EAFF200EEE6EEE6E540EEE6E650EEE6E71
:10033000730EEE6E740EEE6E650EEE6E200EEE6EA9
:10034000530EEE6E650EEE6E720EEE6E690EEE6E72
:10035000610EEE6E6C0EEE6EEE6A8C6A956AA8DE29
:1003600036DF320EE66EE66A3C0EE66E3AEC02F0DE
:10037000E552E552E552D9CFE6FFDACFE6FF7FEC52
:1003800002F0E552E552D950150FE66E000EDA2064
:10039000E66EEEDEE552E5529EAA12D0A5EC02F022
:1003A000E76E250EE7CFDBFF020EE66E070EE66E68
:1003B00040DEE552E552250EDBCFE6FFC9DEE55211
:1003C000EBD7260EE15C02E2E16AE552E16EE5520E
:0603D000E7CFD9FF120087
:0A03D600060EF66E000EF76E000E24
:1003E000F86E00010900F550656F0900F550666F61
:1003F00003E1656701D03DD00900F550606F090049
:10040000F550616F0900F550626F09000900F55061
:10041000E96E0900F550EA6E090009000900F5507F
:10042000636F0900F550646F09000900F6CF67F0AB
:10043000F7CF68F0F8CF69F060C0F6FF61C0F7FF52
:1004400062C0F8FF0001635302E1645307E0090052
:10045000F550EE6E6307F8E26407F9D767C0F6FF60
:1004600068C0F7FF69C0F8FF00016507000E665B12
:04047000BFD71200E0
:0C047400D9CFE6FFDACFE6FFE1CFD9FFD9
:10048000E2CFDAFFAC6AAB6AFD0EDBB0AC88DBA270
:1004900002D0AC8CAB8CDBB4AC8EDBA602D0AB88CC
:1004A00001D0AB8ADBB8AC849E98DBBAAB86DBAC00
:1004B00002D09D8A01D09D9A9E9ADBAE02D09D8883
:1004C00001D09D98FB0EDB50AF6EFB0EFC0EDBCF18
:1004D00003F003C002F0036A0250B06EAC8AAB8E28
:1004E000949C948EAC50100B04E0AC50800B01E156
:0E04F000948CE552E5CFDAFFE7CFD9FF12007A
:0204FE00D9CF54
:10050000E6FFDACFE6FFE1CFD9FFE2CFDAFFACA218
:10051000FED7FC0EDBCFE9FFFD0EDBCFEAFFEF508D
:10052000E66EC4EC02F0E552FC0EDBCFE9FFDB2AFD
:10053000FD0EDBCFEAFF01E3DB2AEF50E8E1E552F5
:0A054000E5CFDAFFE7CFD9FF120084
:06054A00D9CFE6FFDACF75
:10055000E6FFE1CFD9FFE2CFDAFFE652F20E00016B
:100560006A17ABAC03D06A91ABB06A81ABB46A8551
:10057000ABB26A87AE50DF6EDF50E552E552E5CF91
:08058000DAFFE7CFD9FF1200FA
:08058800D9CFE6FFDACFE6FF50
:10059000E1CFD9FFE2CFDAFFACAC04D0AC900001E0
:1005A0006AB3AC80FD0EDB50AD6EE552E5CFDAFFED
:0605B000E7CFD9FF1200A5
:0A05B600FF0EE350046E480E01D062
:1005C0004C0EE76EE72EFED7E76AE72EFED7042E25
:0605D000F7D70000120045
:0A05D600000EF36E00EE00F0080EB8
:1005E00001D81200EA6002D0EE6AFCD7F350E9604D
:0605F0001200EE6AFCD7C8
:0A05F60013EE00F023EE00F0F86AA7
:10060000019CEBEC01F019EC03F05AEC01F0FBD784
:020610001200D6
:0E061200FF0EE350046E1B0E00D001D0200E30
:0E062000E76EE72EFED7042EFAD700D01200A8
:02062E00F19E3B
:020630001200B6
:020632001200B4
:020000040030CA
:010001000CF2
:010002001FDE
:010003001EDE
:0100050001F9
:010006008178
:00000001FF
